{
  "_format": "hh-sol-artifact-1",
  "contractName": "SoulWalletFactory",
  "sourceName": "contracts/SoulWalletFactory.sol",
  "abi": [
    {
      "inputs": [
        {
          "internalType": "address",
          "name": "_walletImpl",
          "type": "address"
        },
        {
          "internalType": "address",
          "name": "_singletonFactory",
          "type": "address"
        }
      ],
      "stateMutability": "nonpayable",
      "type": "constructor"
    },
    {
      "anonymous": false,
      "inputs": [
        {
          "indexed": true,
          "internalType": "address",
          "name": "_proxy",
          "type": "address"
        },
        {
          "indexed": true,
          "internalType": "address",
          "name": "_owner",
          "type": "address"
        },
        {
          "indexed": true,
          "internalType": "address",
          "name": "_implementation",
          "type": "address"
        },
        {
          "indexed": false,
          "internalType": "string",
          "name": "version",
          "type": "string"
        }
      ],
      "name": "SoulWalletCreated",
      "type": "event"
    },
    {
      "inputs": [],
      "name": "VERSION",
      "outputs": [
        {
          "internalType": "string",
          "name": "",
          "type": "string"
        }
      ],
      "stateMutability": "view",
      "type": "function"
    },
    {
      "inputs": [
        {
          "internalType": "address",
          "name": "_entryPoint",
          "type": "address"
        },
        {
          "internalType": "address",
          "name": "_owner",
          "type": "address"
        },
        {
          "internalType": "uint32",
          "name": "_upgradeDelay",
          "type": "uint32"
        },
        {
          "internalType": "uint32",
          "name": "_guardianDelay",
          "type": "uint32"
        },
        {
          "internalType": "address",
          "name": "_guardian",
          "type": "address"
        },
        {
          "internalType": "bytes32",
          "name": "_salt",
          "type": "bytes32"
        }
      ],
      "name": "createWallet",
      "outputs": [
        {
          "internalType": "address",
          "name": "",
          "type": "address"
        }
      ],
      "stateMutability": "nonpayable",
      "type": "function"
    },
    {
      "inputs": [
        {
          "internalType": "address",
          "name": "_entryPoint",
          "type": "address"
        },
        {
          "internalType": "address",
          "name": "_owner",
          "type": "address"
        },
        {
          "internalType": "uint32",
          "name": "_upgradeDelay",
          "type": "uint32"
        },
        {
          "internalType": "uint32",
          "name": "_guardianDelay",
          "type": "uint32"
        },
        {
          "internalType": "address",
          "name": "_guardian",
          "type": "address"
        },
        {
          "internalType": "bytes32",
          "name": "_salt",
          "type": "bytes32"
        }
      ],
      "name": "getWalletAddress",
      "outputs": [
        {
          "internalType": "address",
          "name": "",
          "type": "address"
        }
      ],
      "stateMutability": "view",
      "type": "function"
    },
    {
      "inputs": [
        {
          "internalType": "address",
          "name": "",
          "type": "address"
        }
      ],
      "name": "isWalletActive",
      "outputs": [
        {
          "internalType": "bool",
          "name": "",
          "type": "bool"
        }
      ],
      "stateMutability": "view",
      "type": "function"
    },
    {
      "inputs": [],
      "name": "singletonFactory",
      "outputs": [
        {
          "internalType": "address",
          "name": "",
          "type": "address"
        }
      ],
      "stateMutability": "view",
      "type": "function"
    },
    {
      "inputs": [],
      "name": "walletImpl",
      "outputs": [
        {
          "internalType": "address",
          "name": "",
          "type": "address"
        }
      ],
      "stateMutability": "view",
      "type": "function"
    }
  ],
  "bytecode": "0x60c060405234801561001057600080fd5b50604051610f32380380610f3283398101604081905261002f91610107565b6001600160a01b03821661007d5760405162461bcd60e51b815260206004820152601060248201526f3bb0b63632ba24b6b8361032b93937b960811b60448201526064015b60405180910390fd5b6001600160a01b0380831660805281166100d95760405162461bcd60e51b815260206004820152601660248201527f73696e676c65746f6e466163746f7279206572726f72000000000000000000006044820152606401610074565b6001600160a01b031660a0525061013a565b80516001600160a01b038116811461010257600080fd5b919050565b6000806040838503121561011a57600080fd5b610123836100eb565b9150610131602084016100eb565b90509250929050565b60805160a051610db26101806000396000818160d101528181610255015261037001526000818160a9015281816101a0015281816102b1015261043f0152610db26000f3fe60806040523480156200001157600080fd5b50600436106200006a5760003560e01c806330b8d376146200006f5780633943c03014620000a3578063bc10273e14620000cb578063d0ed7b9114620000f3578063f4528808146200012a578063ffa1ad741462000141575b600080fd5b62000086620000803660046200056c565b62000175565b6040516001600160a01b0390911681526020015b60405180910390f35b620000867f000000000000000000000000000000000000000000000000000000000000000081565b620000867f000000000000000000000000000000000000000000000000000000000000000081565b6200011962000104366004620005ec565b60006020819052908152604090205460ff1681565b60405190151581526020016200009a565b620000866200013b3660046200056c565b62000286565b6200016660405180604001604052806005815260200164302e302e3160d81b81525081565b6040516200009a919062000667565b600080604051806020016200018a906200052b565b6020820181038252601f19601f820116604052507f00000000000000000000000000000000000000000000000000000000000000008989898989604051602401620001da9594939291906200067c565b60408051601f19818403018152918152602080830180516001600160e01b031663209de19560e21b17905290516200021593929101620006b3565b60408051601f1981840301815290829052620002359291602001620006e1565b60405160208183030381529060405290506200027a8382805190602001207f000000000000000000000000000000000000000000000000000000000000000062000501565b98975050505050505050565b600080604051806020016200029b906200052b565b6020820181038252601f19601f820116604052507f00000000000000000000000000000000000000000000000000000000000000008989898989604051602401620002eb9594939291906200067c565b60408051601f19818403018152918152602080830180516001600160e01b031663209de19560e21b17905290516200032693929101620006b3565b60408051601f1981840301815290829052620003469291602001620006e1565b60408051601f198184030181529082905263257b1f8160e11b825291506000906001600160a01b037f00000000000000000000000000000000000000000000000000000000000000001690634af63f0290620003a9908590889060040162000714565b6020604051808303816000875af1158015620003c9573d6000803e3d6000fd5b505050506040513d601f19601f82011682018060405250810190620003ef919062000738565b90506001600160a01b0381166200043d5760405162461bcd60e51b815260206004820152600e60248201526d18dc99585d194c8819985a5b195960921b604482015260640160405180910390fd5b7f00000000000000000000000000000000000000000000000000000000000000006001600160a01b0316886001600160a01b0316826001600160a01b03167f8f4ebbea6fac3dc9485cb4581e23041567937fa082c34a8504307cd1b7ecc3da60405180604001604052806005815260200164302e302e3160d81b815250604051620004c9919062000667565b60405180910390a46001600160a01b0381166000908152602081905260409020805460ff191660011790559150509695505050505050565b6000604051836040820152846020820152828152600b8101905060ff815360559020949350505050565b610624806200075983390190565b6001600160a01b03811681146200054f57600080fd5b50565b803563ffffffff811681146200056757600080fd5b919050565b60008060008060008060c087890312156200058657600080fd5b8635620005938162000539565b95506020870135620005a58162000539565b9450620005b56040880162000552565b9350620005c56060880162000552565b92506080870135620005d78162000539565b8092505060a087013590509295509295509295565b600060208284031215620005ff57600080fd5b81356200060c8162000539565b9392505050565b60005b838110156200063057818101518382015260200162000616565b50506000910152565b600081518084526200065381602086016020860162000613565b601f01601f19169290920160200192915050565b6020815260006200060c602083018462000639565b6001600160a01b039586168152938516602085015263ffffffff928316604085015291166060830152909116608082015260a00190565b6001600160a01b0383168152604060208201819052600090620006d99083018462000639565b949350505050565b60008351620006f581846020880162000613565b8351908301906200070b81836020880162000613565b01949350505050565b60408152600062000729604083018562000639565b90508260208301529392505050565b6000602082840312156200074b57600080fd5b81516200060c816200053956fe608060405260405161062438038061062483398101604081905261002291610240565b61002c8282610033565b505061035d565b61003c82610055565b61005082826100b160201b6100491760201c565b505050565b61007d817f360894a13ba1a3210667c828492db98dca3e2076cc3735a920a3ca505d382bbc55565b6001600160a01b038116807fbc7cd75a20ee27fd9adebab32041f755214dbc6bffa90cc0225b39da2e5c2d3b600080a25050565b60606100d683836040518060600160405280602781526020016105fd602791396100dd565b9392505050565b6060600080856001600160a01b0316856040516100fa919061030e565b600060405180830381855af49150503d8060008114610135576040519150601f19603f3d011682016040523d82523d6000602084013e61013a565b606091505b50909250905061014c86838387610156565b9695505050505050565b606083156101ca5782516000036101c3576001600160a01b0385163b6101c35760405162461bcd60e51b815260206004820152601d60248201527f416464726573733a2063616c6c20746f206e6f6e2d636f6e747261637400000060448201526064015b60405180910390fd5b50816101d4565b6101d483836101dc565b949350505050565b8151156101ec5781518083602001fd5b8060405162461bcd60e51b81526004016101ba919061032a565b634e487b7160e01b600052604160045260246000fd5b60005b8381101561023757818101518382015260200161021f565b50506000910152565b6000806040838503121561025357600080fd5b82516001600160a01b038116811461026a57600080fd5b60208401519092506001600160401b038082111561028757600080fd5b818501915085601f83011261029b57600080fd5b8151818111156102ad576102ad610206565b604051601f8201601f19908116603f011681019083821181831017156102d5576102d5610206565b816040528281528860208487010111156102ee57600080fd5b6102ff83602083016020880161021c565b80955050505050509250929050565b6000825161032081846020870161021c565b9190910192915050565b602081526000825180602084015261034981604085016020870161021c565b601f01601f19169190910160400192915050565b6102918061036c6000396000f3fe60806040523661001357610011610017565b005b6100115b6100476100427f360894a13ba1a3210667c828492db98dca3e2076cc3735a920a3ca505d382bbc5490565b610075565b565b606061006e838360405180606001604052806027815260200161023560279139610099565b9392505050565b3660008037600080366000845af43d6000803e808015610094573d6000f35b3d6000fd5b6060600080856001600160a01b0316856040516100b691906101e5565b600060405180830381855af49150503d80600081146100f1576040519150601f19603f3d011682016040523d82523d6000602084013e6100f6565b606091505b509150915061010786838387610111565b9695505050505050565b6060831561018557825160000361017e576001600160a01b0385163b61017e5760405162461bcd60e51b815260206004820152601d60248201527f416464726573733a2063616c6c20746f206e6f6e2d636f6e747261637400000060448201526064015b60405180910390fd5b508161018f565b61018f8383610197565b949350505050565b8151156101a75781518083602001fd5b8060405162461bcd60e51b81526004016101759190610201565b60005b838110156101dc5781810151838201526020016101c4565b50506000910152565b600082516101f78184602087016101c1565b9190910192915050565b60208152600082518060208401526102208160408501602087016101c1565b601f01601f1916919091016040019291505056fe416464726573733a206c6f772d6c6576656c2064656c65676174652063616c6c206661696c6564a2646970667358221220311b1eb2de76d59351a445619d90bfddd9118d54f74c69930418681818c4e01464736f6c63430008110033416464726573733a206c6f772d6c6576656c2064656c65676174652063616c6c206661696c6564a2646970667358221220d00d8034e5d1e9fb9661be24bcf44cce075bcb4c5b8e12237278c00ec59e0f0064736f6c63430008110033",
  "linkReferences": {},
  "deployedLinkReferences": {}
}