{
  "_format": "hh-sol-artifact-1",
  "contractName": "ClaimVerifier",
  "sourceName": "contracts/ClaimVerifier.sol",
  "abi": [
    {
      "inputs": [
        {
          "internalType": "address",
          "name": "_trustedClaimIssuer",
          "type": "address"
        }
      ],
      "stateMutability": "nonpayable",
      "type": "constructor"
    },
    {
      "anonymous": false,
      "inputs": [
        {
          "indexed": false,
          "internalType": "contract ClaimHolder",
          "name": "_identity",
          "type": "address"
        },
        {
          "indexed": false,
          "internalType": "uint256",
          "name": "claimType",
          "type": "uint256"
        }
      ],
      "name": "ClaimInvalid",
      "type": "event"
    },
    {
      "anonymous": false,
      "inputs": [
        {
          "indexed": false,
          "internalType": "contract ClaimHolder",
          "name": "_identity",
          "type": "address"
        },
        {
          "indexed": false,
          "internalType": "uint256",
          "name": "claimType",
          "type": "uint256"
        }
      ],
      "name": "ClaimValid",
      "type": "event"
    },
    {
      "inputs": [
        {
          "internalType": "contract ClaimHolder",
          "name": "_identity",
          "type": "address"
        },
        {
          "internalType": "uint256",
          "name": "claimType",
          "type": "uint256"
        }
      ],
      "name": "checkClaim",
      "outputs": [
        {
          "internalType": "bool",
          "name": "claimValid",
          "type": "bool"
        }
      ],
      "stateMutability": "nonpayable",
      "type": "function"
    },
    {
      "inputs": [
        {
          "internalType": "contract ClaimHolder",
          "name": "_identity",
          "type": "address"
        },
        {
          "internalType": "uint256",
          "name": "claimType",
          "type": "uint256"
        }
      ],
      "name": "claimIsValid",
      "outputs": [
        {
          "internalType": "bool",
          "name": "claimValid",
          "type": "bool"
        }
      ],
      "stateMutability": "view",
      "type": "function"
    },
    {
      "inputs": [
        {
          "internalType": "bytes",
          "name": "sig",
          "type": "bytes"
        },
        {
          "internalType": "bytes32",
          "name": "dataHash",
          "type": "bytes32"
        }
      ],
      "name": "getRecoveredAddress",
      "outputs": [
        {
          "internalType": "address",
          "name": "addr",
          "type": "address"
        }
      ],
      "stateMutability": "pure",
      "type": "function"
    },
    {
      "inputs": [],
      "name": "trustedClaimIssuer",
      "outputs": [
        {
          "internalType": "contract ClaimHolder",
          "name": "",
          "type": "address"
        }
      ],
      "stateMutability": "view",
      "type": "function"
    }
  ],
  "bytecode": "0x608060405234801561001057600080fd5b506040516108e93803806108e983398101604081905261002f91610054565b600080546001600160a01b0319166001600160a01b0392909216919091179055610084565b60006020828403121561006657600080fd5b81516001600160a01b038116811461007d57600080fd5b9392505050565b610856806100936000396000f3fe608060405234801561001057600080fd5b506004361061004c5760003560e01c80630382ad2614610051578063106aede8146100795780639fecd554146100be578063c3b129e3146100d1575b600080fd5b61006461005f36600461050c565b6100e4565b60405190151581526020015b60405180910390f35b6000546100999073ffffffffffffffffffffffffffffffffffffffff1681565b60405173ffffffffffffffffffffffffffffffffffffffff9091168152602001610070565b6100646100cc36600461050c565b6101a5565b6100996100df3660046105c0565b610436565b60006100f083836101a5565b1561014c576040805173ffffffffffffffffffffffffffffffffffffffff85168152602081018490527f5637aa6b77cde2de563765b75a65099af73d3bf22cb9d089a64a01777823208e910160405180910390a150600161019f565b6040805173ffffffffffffffffffffffffffffffffffffffff85168152602081018490527fc1e461cfcaa9ff5efbb053582a325fbfebec1d94ac7e9d9958ee7f74c2b6b558910160405180910390a15060005b92915050565b600080546040516bffffffffffffffffffffffff19606092831b16602082015260348101849052829182918291908190839060540160408051808303601f190181529082905280516020909101207fc9100bcb00000000000000000000000000000000000000000000000000000000825260048201819052915073ffffffffffffffffffffffffffffffffffffffff8a169063c9100bcb90602401600060405180830381865afa15801561025d573d6000803e3d6000fd5b505050506040513d6000823e601f3d908101601f1916820160405261028591908101906106bd565b50604051949a50929850909650945092506000906102ab908b908b90869060200161077f565b604051602081830303815290604052905060008a8a856040516020016102d39392919061077f565b60405160208183030381529060405280519060200120905060008160405160200161032a91907f19457468657265756d205369676e6564204d6573736167653a0a3332000000008152601c810191909152603c0190565b604051602081830303815290604052805190602001209050600061034e8783610436565b6040516bffffffffffffffffffffffff19606083901b16602082015290915060009060340160408051808303601f190181529082905280516020909101206000547fd202158d000000000000000000000000000000000000000000000000000000008352600483018290526003602484015290925073ffffffffffffffffffffffffffffffffffffffff169063d202158d90604401602060405180830381865afa158015610400573d6000803e3d6000fd5b505050506040513d601f19601f8201168201806040525081019061042491906107be565b9e9d5050505050505050505050505050565b6000806000808551604114610451576000935050505061019f565b50505060208301516040840151606085015160001a601b81101561047d5761047a601b826107e0565b90505b6040805160008082526020820180845288905260ff841692820192909252606081018590526080810184905260019060a0016020604051602081039080840390855afa1580156104d1573d6000803e3d6000fd5b5050604051601f19015198975050505050505050565b73ffffffffffffffffffffffffffffffffffffffff8116811461050957600080fd5b50565b6000806040838503121561051f57600080fd5b823561052a816104e7565b946020939093013593505050565b7f4e487b7100000000000000000000000000000000000000000000000000000000600052604160045260246000fd5b604051601f8201601f1916810167ffffffffffffffff8111828210171561059057610590610538565b604052919050565b600067ffffffffffffffff8211156105b2576105b2610538565b50601f01601f191660200190565b600080604083850312156105d357600080fd5b823567ffffffffffffffff8111156105ea57600080fd5b8301601f810185136105fb57600080fd5b803561060e61060982610598565b610567565b81815286602083850101111561062357600080fd5b8160208401602083013760006020928201830152969401359450505050565b60005b8381101561065d578181015183820152602001610645565b50506000910152565b600061067461060984610598565b905082815283838301111561068857600080fd5b610696836020830184610642565b9392505050565b600082601f8301126106ae57600080fd5b61069683835160208501610666565b60008060008060008060c087890312156106d657600080fd5b865195506020870151945060408701516106ef816104e7565b606088015190945067ffffffffffffffff8082111561070d57600080fd5b6107198a838b0161069d565b9450608089015191508082111561072f57600080fd5b61073b8a838b0161069d565b935060a089015191508082111561075157600080fd5b508701601f8101891361076357600080fd5b61077289825160208401610666565b9150509295509295509295565b6bffffffffffffffffffffffff198460601b168152826014820152600082516107af816034850160208701610642565b91909101603401949350505050565b6000602082840312156107d057600080fd5b8151801515811461069657600080fd5b60ff818116838216019081111561019f577f4e487b7100000000000000000000000000000000000000000000000000000000600052601160045260246000fdfea2646970667358221220ed592a2c640859b03fedea5342655990237f6010e96ff77803047aeb8715c4eb64736f6c63430008110033",
  "linkReferences": {},
  "deployedLinkReferences": {}
}