{
  "_format": "hh-sol-artifact-1",
  "contractName": "KeyHolder",
  "sourceName": "contracts/KeyHolder.sol",
  "abi": [
    {
      "inputs": [],
      "stateMutability": "nonpayable",
      "type": "constructor"
    },
    {
      "anonymous": false,
      "inputs": [
        {
          "indexed": true,
          "internalType": "uint256",
          "name": "executionId",
          "type": "uint256"
        },
        {
          "indexed": false,
          "internalType": "bool",
          "name": "approved",
          "type": "bool"
        }
      ],
      "name": "Approved",
      "type": "event"
    },
    {
      "anonymous": false,
      "inputs": [
        {
          "indexed": true,
          "internalType": "bytes32",
          "name": "key",
          "type": "bytes32"
        },
        {
          "indexed": true,
          "internalType": "uint256",
          "name": "purpose",
          "type": "uint256"
        },
        {
          "indexed": true,
          "internalType": "uint256",
          "name": "keyType",
          "type": "uint256"
        }
      ],
      "name": "KeyAdded",
      "type": "event"
    },
    {
      "anonymous": false,
      "inputs": [
        {
          "indexed": true,
          "internalType": "bytes32",
          "name": "key",
          "type": "bytes32"
        },
        {
          "indexed": true,
          "internalType": "uint256",
          "name": "purpose",
          "type": "uint256"
        },
        {
          "indexed": true,
          "internalType": "uint256",
          "name": "keyType",
          "type": "uint256"
        }
      ],
      "name": "KeyRemoved",
      "type": "event"
    },
    {
      "inputs": [
        {
          "internalType": "bytes32",
          "name": "_key",
          "type": "bytes32"
        },
        {
          "internalType": "uint256",
          "name": "_purpose",
          "type": "uint256"
        },
        {
          "internalType": "uint256",
          "name": "_type",
          "type": "uint256"
        }
      ],
      "name": "addKey",
      "outputs": [
        {
          "internalType": "bool",
          "name": "success",
          "type": "bool"
        }
      ],
      "stateMutability": "nonpayable",
      "type": "function"
    },
    {
      "inputs": [
        {
          "internalType": "bytes32",
          "name": "_key",
          "type": "bytes32"
        }
      ],
      "name": "getKey",
      "outputs": [
        {
          "internalType": "uint256",
          "name": "purpose",
          "type": "uint256"
        },
        {
          "internalType": "uint256",
          "name": "keyType",
          "type": "uint256"
        },
        {
          "internalType": "bytes32",
          "name": "key",
          "type": "bytes32"
        }
      ],
      "stateMutability": "view",
      "type": "function"
    },
    {
      "inputs": [
        {
          "internalType": "bytes32",
          "name": "_key",
          "type": "bytes32"
        }
      ],
      "name": "getKeyPurpose",
      "outputs": [
        {
          "internalType": "uint256",
          "name": "purpose",
          "type": "uint256"
        }
      ],
      "stateMutability": "view",
      "type": "function"
    },
    {
      "inputs": [
        {
          "internalType": "uint256",
          "name": "_purpose",
          "type": "uint256"
        }
      ],
      "name": "getKeysByPurpose",
      "outputs": [
        {
          "internalType": "bytes32[]",
          "name": "_keys",
          "type": "bytes32[]"
        }
      ],
      "stateMutability": "view",
      "type": "function"
    },
    {
      "inputs": [
        {
          "internalType": "bytes32",
          "name": "_key",
          "type": "bytes32"
        },
        {
          "internalType": "uint256",
          "name": "_purpose",
          "type": "uint256"
        }
      ],
      "name": "keyHasPurpose",
      "outputs": [
        {
          "internalType": "bool",
          "name": "result",
          "type": "bool"
        }
      ],
      "stateMutability": "view",
      "type": "function"
    },
    {
      "inputs": [
        {
          "internalType": "bytes32",
          "name": "_key",
          "type": "bytes32"
        }
      ],
      "name": "removeKey",
      "outputs": [
        {
          "internalType": "bool",
          "name": "success",
          "type": "bool"
        }
      ],
      "stateMutability": "nonpayable",
      "type": "function"
    }
  ],
  "bytecode": "0x608060405234801561001057600080fd5b50610634806100206000396000f3fe608060405234801561001057600080fd5b50600436106100725760003560e01c8063862642f511610050578063862642f5146101535780639010f72614610166578063d202158d1461018657600080fd5b8063032c1a8a1461007757806312aaac70146100c95780631d38124014610130575b600080fd5b6100b6610085366004610553565b60009081527ff8a710ee80f631cf345664111f4640826662740a1425b833ce4638e14a4e7f42602052604090205490565b6040519081526020015b60405180910390f35b6101156100d7366004610553565b60009081527ff8a710ee80f631cf345664111f4640826662740a1425b833ce4638e14a4e7f4260205260409020805460018201546002909201549092565b604080519384526020840192909252908201526060016100c0565b61014361013e36600461056c565b610199565b60405190151581526020016100c0565b610143610161366004610553565b61035e565b610179610174366004610553565b610449565b6040516100c09190610598565b6101436101943660046105dc565b6104f0565b60008381527ff8a710ee80f631cf345664111f4640826662740a1425b833ce4638e14a4e7f42602081905260408220600201548590036102205760405162461bcd60e51b815260206004820152601260248201527f4b657920616c726561647920657869737473000000000000000000000000000060448201526064015b60405180910390fd5b3330146102eb576040517fffffffffffffffffffffffffffffffffffffffff0000000000000000000000003360601b166020820152610279906034016040516020818303038152906040528051906020012060016104f0565b6102eb5760405162461bcd60e51b815260206004820152602360248201527f53656e64657220646f6573206e6f742068617665206d616e6167656d656e742060448201527f6b657900000000000000000000000000000000000000000000000000000000006064820152608401610217565b6000858152602082815260408083206002810189905587815560019081018790558784528085018352818420805491820181558452918320909101879055518491869188917f480000bb1edad8ca1470381cc334b1917fbd51c6531f3a623ea8e0ec7e38a6e991a4506001949350505050565b60008181527ff8a710ee80f631cf345664111f4640826662740a1425b833ce4638e14a4e7f426020819052604082206002015483146103df5760405162461bcd60e51b815260206004820152600b60248201527f4e6f2073756368206b65790000000000000000000000000000000000000000006044820152606401610217565b60008381526020829052604080822060018101548154600290920154925190939192917f585a4aef50f8267a92b32412b331b20f7f8b96f2245b253b9cc50dcc621d339791a460009283526020525060408120818155600180820183905560029091019190915590565b60008181527ff8a710ee80f631cf345664111f4640826662740a1425b833ce4638e14a4e7f43602090815260409182902080548351818402810184019094528084526060937ff8a710ee80f631cf345664111f4640826662740a1425b833ce4638e14a4e7f4293909291908301828280156104e357602002820191906000526020600020905b8154815260200190600101908083116104cf575b5050505050915050919050565b60008281527ff8a710ee80f631cf345664111f4640826662740a1425b833ce4638e14a4e7f4260208190526040822060020154829081036105365760009250505061054d565b506000848152602091909152604090205482101590505b92915050565b60006020828403121561056557600080fd5b5035919050565b60008060006060848603121561058157600080fd5b505081359360208301359350604090920135919050565b6020808252825182820181905260009190848201906040850190845b818110156105d0578351835292840192918401916001016105b4565b50909695505050505050565b600080604083850312156105ef57600080fd5b5050803592602090910135915056fea26469706673582212208ed00d857ca3fc528df587a7f4894d7a5afd178c136330a0c22aa0df6b18822864736f6c63430008110033",
  "linkReferences": {},
  "deployedLinkReferences": {}
}