{
  "_format": "hh-sol-artifact-1",
  "contractName": "ClaimHolder",
  "sourceName": "contracts/ClaimHolder.sol",
  "abi": [
    {
      "anonymous": false,
      "inputs": [
        {
          "indexed": true,
          "internalType": "uint256",
          "name": "executionId",
          "type": "uint256"
        },
        {
          "indexed": false,
          "internalType": "bool",
          "name": "approved",
          "type": "bool"
        }
      ],
      "name": "Approved",
      "type": "event"
    },
    {
      "anonymous": false,
      "inputs": [
        {
          "indexed": true,
          "internalType": "bytes32",
          "name": "claimId",
          "type": "bytes32"
        },
        {
          "indexed": true,
          "internalType": "uint256",
          "name": "claimType",
          "type": "uint256"
        },
        {
          "indexed": false,
          "internalType": "uint256",
          "name": "scheme",
          "type": "uint256"
        },
        {
          "indexed": true,
          "internalType": "address",
          "name": "issuer",
          "type": "address"
        },
        {
          "indexed": false,
          "internalType": "bytes",
          "name": "signature",
          "type": "bytes"
        },
        {
          "indexed": false,
          "internalType": "bytes",
          "name": "data",
          "type": "bytes"
        },
        {
          "indexed": false,
          "internalType": "string",
          "name": "uri",
          "type": "string"
        }
      ],
      "name": "ClaimAdded",
      "type": "event"
    },
    {
      "anonymous": false,
      "inputs": [
        {
          "indexed": true,
          "internalType": "bytes32",
          "name": "claimId",
          "type": "bytes32"
        },
        {
          "indexed": true,
          "internalType": "uint256",
          "name": "claimType",
          "type": "uint256"
        },
        {
          "indexed": false,
          "internalType": "uint256",
          "name": "scheme",
          "type": "uint256"
        },
        {
          "indexed": true,
          "internalType": "address",
          "name": "issuer",
          "type": "address"
        },
        {
          "indexed": false,
          "internalType": "bytes",
          "name": "signature",
          "type": "bytes"
        },
        {
          "indexed": false,
          "internalType": "bytes",
          "name": "data",
          "type": "bytes"
        },
        {
          "indexed": false,
          "internalType": "string",
          "name": "uri",
          "type": "string"
        }
      ],
      "name": "ClaimChanged",
      "type": "event"
    },
    {
      "anonymous": false,
      "inputs": [
        {
          "indexed": true,
          "internalType": "bytes32",
          "name": "claimId",
          "type": "bytes32"
        },
        {
          "indexed": true,
          "internalType": "uint256",
          "name": "claimType",
          "type": "uint256"
        },
        {
          "indexed": false,
          "internalType": "uint256",
          "name": "scheme",
          "type": "uint256"
        },
        {
          "indexed": true,
          "internalType": "address",
          "name": "issuer",
          "type": "address"
        },
        {
          "indexed": false,
          "internalType": "bytes",
          "name": "signature",
          "type": "bytes"
        },
        {
          "indexed": false,
          "internalType": "bytes",
          "name": "data",
          "type": "bytes"
        },
        {
          "indexed": false,
          "internalType": "string",
          "name": "uri",
          "type": "string"
        }
      ],
      "name": "ClaimRemoved",
      "type": "event"
    },
    {
      "anonymous": false,
      "inputs": [
        {
          "indexed": true,
          "internalType": "uint256",
          "name": "claimRequestId",
          "type": "uint256"
        },
        {
          "indexed": true,
          "internalType": "uint256",
          "name": "claimType",
          "type": "uint256"
        },
        {
          "indexed": false,
          "internalType": "uint256",
          "name": "scheme",
          "type": "uint256"
        },
        {
          "indexed": true,
          "internalType": "address",
          "name": "issuer",
          "type": "address"
        },
        {
          "indexed": false,
          "internalType": "bytes",
          "name": "signature",
          "type": "bytes"
        },
        {
          "indexed": false,
          "internalType": "bytes",
          "name": "data",
          "type": "bytes"
        },
        {
          "indexed": false,
          "internalType": "string",
          "name": "uri",
          "type": "string"
        }
      ],
      "name": "ClaimRequested",
      "type": "event"
    },
    {
      "anonymous": false,
      "inputs": [
        {
          "indexed": true,
          "internalType": "bytes32",
          "name": "key",
          "type": "bytes32"
        },
        {
          "indexed": true,
          "internalType": "uint256",
          "name": "purpose",
          "type": "uint256"
        },
        {
          "indexed": true,
          "internalType": "uint256",
          "name": "keyType",
          "type": "uint256"
        }
      ],
      "name": "KeyAdded",
      "type": "event"
    },
    {
      "anonymous": false,
      "inputs": [
        {
          "indexed": true,
          "internalType": "bytes32",
          "name": "key",
          "type": "bytes32"
        },
        {
          "indexed": true,
          "internalType": "uint256",
          "name": "purpose",
          "type": "uint256"
        },
        {
          "indexed": true,
          "internalType": "uint256",
          "name": "keyType",
          "type": "uint256"
        }
      ],
      "name": "KeyRemoved",
      "type": "event"
    },
    {
      "inputs": [
        {
          "internalType": "uint256",
          "name": "_claimType",
          "type": "uint256"
        },
        {
          "internalType": "uint256",
          "name": "_scheme",
          "type": "uint256"
        },
        {
          "internalType": "address",
          "name": "_issuer",
          "type": "address"
        },
        {
          "internalType": "bytes",
          "name": "_signature",
          "type": "bytes"
        },
        {
          "internalType": "bytes",
          "name": "_data",
          "type": "bytes"
        },
        {
          "internalType": "string",
          "name": "_uri",
          "type": "string"
        }
      ],
      "name": "addClaim",
      "outputs": [
        {
          "internalType": "bytes32",
          "name": "claimRequestId",
          "type": "bytes32"
        }
      ],
      "stateMutability": "nonpayable",
      "type": "function"
    },
    {
      "inputs": [
        {
          "internalType": "bytes32",
          "name": "_key",
          "type": "bytes32"
        },
        {
          "internalType": "uint256",
          "name": "_purpose",
          "type": "uint256"
        },
        {
          "internalType": "uint256",
          "name": "_type",
          "type": "uint256"
        }
      ],
      "name": "addKey",
      "outputs": [
        {
          "internalType": "bool",
          "name": "success",
          "type": "bool"
        }
      ],
      "stateMutability": "nonpayable",
      "type": "function"
    },
    {
      "inputs": [
        {
          "internalType": "bytes32",
          "name": "_claimId",
          "type": "bytes32"
        }
      ],
      "name": "getClaim",
      "outputs": [
        {
          "internalType": "uint256",
          "name": "claimType",
          "type": "uint256"
        },
        {
          "internalType": "uint256",
          "name": "scheme",
          "type": "uint256"
        },
        {
          "internalType": "address",
          "name": "issuer",
          "type": "address"
        },
        {
          "internalType": "bytes",
          "name": "signature",
          "type": "bytes"
        },
        {
          "internalType": "bytes",
          "name": "data",
          "type": "bytes"
        },
        {
          "internalType": "string",
          "name": "uri",
          "type": "string"
        }
      ],
      "stateMutability": "view",
      "type": "function"
    },
    {
      "inputs": [
        {
          "internalType": "uint256",
          "name": "_claimType",
          "type": "uint256"
        }
      ],
      "name": "getClaimIdsByType",
      "outputs": [
        {
          "internalType": "bytes32[]",
          "name": "claimIds",
          "type": "bytes32[]"
        }
      ],
      "stateMutability": "view",
      "type": "function"
    },
    {
      "inputs": [
        {
          "internalType": "bytes32",
          "name": "_key",
          "type": "bytes32"
        }
      ],
      "name": "getKey",
      "outputs": [
        {
          "internalType": "uint256",
          "name": "purpose",
          "type": "uint256"
        },
        {
          "internalType": "uint256",
          "name": "keyType",
          "type": "uint256"
        },
        {
          "internalType": "bytes32",
          "name": "key",
          "type": "bytes32"
        }
      ],
      "stateMutability": "view",
      "type": "function"
    },
    {
      "inputs": [
        {
          "internalType": "bytes32",
          "name": "_key",
          "type": "bytes32"
        }
      ],
      "name": "getKeyPurpose",
      "outputs": [
        {
          "internalType": "uint256",
          "name": "purpose",
          "type": "uint256"
        }
      ],
      "stateMutability": "view",
      "type": "function"
    },
    {
      "inputs": [
        {
          "internalType": "uint256",
          "name": "_purpose",
          "type": "uint256"
        }
      ],
      "name": "getKeysByPurpose",
      "outputs": [
        {
          "internalType": "bytes32[]",
          "name": "_keys",
          "type": "bytes32[]"
        }
      ],
      "stateMutability": "view",
      "type": "function"
    },
    {
      "inputs": [
        {
          "internalType": "bytes32",
          "name": "_key",
          "type": "bytes32"
        },
        {
          "internalType": "uint256",
          "name": "_purpose",
          "type": "uint256"
        }
      ],
      "name": "keyHasPurpose",
      "outputs": [
        {
          "internalType": "bool",
          "name": "result",
          "type": "bool"
        }
      ],
      "stateMutability": "view",
      "type": "function"
    },
    {
      "inputs": [
        {
          "internalType": "bytes32",
          "name": "_claimId",
          "type": "bytes32"
        }
      ],
      "name": "removeClaim",
      "outputs": [
        {
          "internalType": "bool",
          "name": "success",
          "type": "bool"
        }
      ],
      "stateMutability": "nonpayable",
      "type": "function"
    },
    {
      "inputs": [
        {
          "internalType": "bytes32",
          "name": "_key",
          "type": "bytes32"
        }
      ],
      "name": "removeKey",
      "outputs": [
        {
          "internalType": "bool",
          "name": "success",
          "type": "bool"
        }
      ],
      "stateMutability": "nonpayable",
      "type": "function"
    }
  ],
  "bytecode": "0x608060405234801561001057600080fd5b506112de806100206000396000f3fe608060405234801561001057600080fd5b50600436106100be5760003560e01c8063862642f511610076578063b1a34e0d1161005b578063b1a34e0d146101f8578063c9100bcb1461020b578063d202158d1461023057600080fd5b8063862642f5146101d25780639010f726146101e557600080fd5b80631d381240116100a75780631d3812401461017c578063262b54f51461019f5780634eee424a146101bf57600080fd5b8063032c1a8a146100c357806312aaac7014610115575b600080fd5b6101026100d1366004610d41565b60009081527ff8a710ee80f631cf345664111f4640826662740a1425b833ce4638e14a4e7f42602052604090205490565b6040519081526020015b60405180910390f35b610161610123366004610d41565b60009081527ff8a710ee80f631cf345664111f4640826662740a1425b833ce4638e14a4e7f4260205260409020805460018201546002909201549092565b6040805193845260208401929092529082015260600161010c565b61018f61018a366004610d5a565b610243565b604051901515815260200161010c565b6101b26101ad366004610d41565b6103f6565b60405161010c9190610d86565b61018f6101cd366004610d41565b61049d565b61018f6101e0366004610d41565b610657565b6101b26101f3366004610d41565b610742565b610102610206366004610e86565b6107e7565b61021e610219366004610d41565b610a5b565b60405161010c96959493929190610f92565b61018f61023e366004611000565b610c88565b60008381527ff8a710ee80f631cf345664111f4640826662740a1425b833ce4638e14a4e7f42602081905260408220600201548590036102ca5760405162461bcd60e51b815260206004820152601260248201527f4b657920616c726561647920657869737473000000000000000000000000000060448201526064015b60405180910390fd5b333014610383576040516bffffffffffffffffffffffff193360601b166020820152610311906034015b604051602081830303815290604052805190602001206001610c88565b6103835760405162461bcd60e51b815260206004820152602360248201527f53656e64657220646f6573206e6f742068617665206d616e6167656d656e742060448201527f6b6579000000000000000000000000000000000000000000000000000000000060648201526084016102c1565b6000858152602082815260408083206002810189905587815560019081018790558784528085018352818420805491820181558452918320909101879055518491869188917f480000bb1edad8ca1470381cc334b1917fbd51c6531f3a623ea8e0ec7e38a6e991a4506001949350505050565b60008181527ff8a710ee80f631cf345664111f4640826662740a1425b833ce4638e14a4e7fa9602090815260409182902080548351818402810184019094528084526060937ff8a710ee80f631cf345664111f4640826662740a1425b833ce4638e14a4e7fa8939092919083018282801561049057602002820191906000526020600020905b81548152602001906001019080831161047c575b5050505050915050919050565b60007ff8a710ee80f631cf345664111f4640826662740a1425b833ce4638e14a4e7fa8303314610560576040516bffffffffffffffffffffffff193360601b1660208201526104ee906034016102f4565b6105605760405162461bcd60e51b815260206004820152602360248201527f53656e64657220646f6573206e6f742068617665206d616e6167656d656e742060448201527f6b6579000000000000000000000000000000000000000000000000000000000060648201526084016102c1565b60008381526020829052604090819020600281015481546001830154935173ffffffffffffffffffffffffffffffffffffffff90921693909287927f3cf57863a89432c61c4a27073c6ee39e8a764bff5a05aebfbcdcdc80b2e6130a926105d892909160038201916004810191600590910190611110565b60405180910390a46000838152602082905260408120818155600181018290556002810180547fffffffffffffffffffffffff0000000000000000000000000000000000000000169055906106306003830182610ceb565b61063e600483016000610ceb565b61064c600583016000610ceb565b506001949350505050565b60008181527ff8a710ee80f631cf345664111f4640826662740a1425b833ce4638e14a4e7f426020819052604082206002015483146106d85760405162461bcd60e51b815260206004820152600b60248201527f4e6f2073756368206b657900000000000000000000000000000000000000000060448201526064016102c1565b60008381526020829052604080822060018101548154600290920154925190939192917f585a4aef50f8267a92b32412b331b20f7f8b96f2245b253b9cc50dcc621d339791a460009283526020525060408120818155600180820183905560029091019190915590565b60008181527ff8a710ee80f631cf345664111f4640826662740a1425b833ce4638e14a4e7f43602090815260409182902080548351818402810184019094528084526060937ff8a710ee80f631cf345664111f4640826662740a1425b833ce4638e14a4e7f429390929190830182828015610490576020028201919060005260206000209081548152602001906001019080831161047c575050505050915050919050565b60408051606086901b6bffffffffffffffffffffffff191660208083019190915260348083018a905283518084039091018152605490920190925280519101206000907ff8a710ee80f631cf345664111f4640826662740a1425b833ce4638e14a4e7fa890303314610904576040516bffffffffffffffffffffffff193360601b16602082015261089290603401604051602081830303815290604052805190602001206003610c88565b6109045760405162461bcd60e51b815260206004820152602560248201527f53656e64657220646f6573206e6f74206861766520636c61696d207369676e6560448201527f72206b657900000000000000000000000000000000000000000000000000000060648201526084016102c1565b60008181526020839052604090206002015473ffffffffffffffffffffffffffffffffffffffff8881169116146109595760008981526001808401602090815260408320805492830181558352909120018190555b6000818152602083905260409020898155600181018990556002810180547fffffffffffffffffffffffff00000000000000000000000000000000000000001673ffffffffffffffffffffffffffffffffffffffff8a161790556003016109c087826111a9565b5060008181526020839052604090206004016109dc86826111a9565b5060008181526020839052604090206005016109f885826111a9565b508673ffffffffffffffffffffffffffffffffffffffff1689827f46149b18aa084502c3f12bc75e19eda8bda8d102b82cce8474677a6d0d5f43c58b8a8a8a604051610a479493929190611269565b60405180910390a498975050505050505050565b60008181527ff8a710ee80f631cf345664111f4640826662740a1425b833ce4638e14a4e7fa8602081905260408220805460018201546002830154600384018054879687966060968796879693959194909373ffffffffffffffffffffffffffffffffffffffff169260048101916005909101908390610ada90611022565b80601f0160208091040260200160405190810160405280929190818152602001828054610b0690611022565b8015610b535780601f10610b2857610100808354040283529160200191610b53565b820191906000526020600020905b815481529060010190602001808311610b3657829003601f168201915b50505050509250818054610b6690611022565b80601f0160208091040260200160405190810160405280929190818152602001828054610b9290611022565b8015610bdf5780601f10610bb457610100808354040283529160200191610bdf565b820191906000526020600020905b815481529060010190602001808311610bc257829003601f168201915b50505050509150808054610bf290611022565b80601f0160208091040260200160405190810160405280929190818152602001828054610c1e90611022565b8015610c6b5780601f10610c4057610100808354040283529160200191610c6b565b820191906000526020600020905b815481529060010190602001808311610c4e57829003601f168201915b505050505090509650965096509650965096505091939550919395565b60008281527ff8a710ee80f631cf345664111f4640826662740a1425b833ce4638e14a4e7f426020819052604082206002015482908103610cce57600092505050610ce5565b506000848152602091909152604090205482101590505b92915050565b508054610cf790611022565b6000825580601f10610d07575050565b601f016020900490600052602060002090810190610d259190610d28565b50565b5b80821115610d3d5760008155600101610d29565b5090565b600060208284031215610d5357600080fd5b5035919050565b600080600060608486031215610d6f57600080fd5b505081359360208301359350604090920135919050565b6020808252825182820181905260009190848201906040850190845b81811015610dbe57835183529284019291840191600101610da2565b50909695505050505050565b7f4e487b7100000000000000000000000000000000000000000000000000000000600052604160045260246000fd5b600082601f830112610e0a57600080fd5b813567ffffffffffffffff80821115610e2557610e25610dca565b604051601f8301601f19908116603f01168101908282118183101715610e4d57610e4d610dca565b81604052838152866020858801011115610e6657600080fd5b836020870160208301376000602085830101528094505050505092915050565b60008060008060008060c08789031215610e9f57600080fd5b8635955060208701359450604087013573ffffffffffffffffffffffffffffffffffffffff81168114610ed157600080fd5b9350606087013567ffffffffffffffff80821115610eee57600080fd5b610efa8a838b01610df9565b94506080890135915080821115610f1057600080fd5b610f1c8a838b01610df9565b935060a0890135915080821115610f3257600080fd5b50610f3f89828a01610df9565b9150509295509295509295565b6000815180845260005b81811015610f7257602081850181015186830182015201610f56565b506000602082860101526020601f19601f83011685010191505092915050565b86815285602082015273ffffffffffffffffffffffffffffffffffffffff8516604082015260c060608201526000610fcd60c0830186610f4c565b8281036080840152610fdf8186610f4c565b905082810360a0840152610ff38185610f4c565b9998505050505050505050565b6000806040838503121561101357600080fd5b50508035926020909101359150565b600181811c9082168061103657607f821691505b60208210810361106f577f4e487b7100000000000000000000000000000000000000000000000000000000600052602260045260246000fd5b50919050565b6000815461108281611022565b80855260206001838116801561109f57600181146110d757611105565b7fffffffffffffffffffffffffffffffffffffffffffffffffffffffffffffff008516838901528284151560051b8901019550611105565b866000528260002060005b858110156110fd5781548a82018601529083019084016110e2565b890184019650505b505050505092915050565b8481526080602082015260006111296080830186611075565b828103604084015261113b8186611075565b9050828103606084015261114f8185611075565b979650505050505050565b601f8211156111a457600081815260208120601f850160051c810160208610156111815750805b601f850160051c820191505b818110156111a05782815560010161118d565b5050505b505050565b815167ffffffffffffffff8111156111c3576111c3610dca565b6111d7816111d18454611022565b8461115a565b602080601f83116001811461120c57600084156111f45750858301515b600019600386901b1c1916600185901b1785556111a0565b600085815260208120601f198616915b8281101561123b5788860151825594840194600190910190840161121c565b50858210156112595787850151600019600388901b60f8161c191681555b5050505050600190811b01905550565b8481526080602082015260006112826080830186610f4c565b82810360408401526112948186610f4c565b9050828103606084015261114f8185610f4c56fea26469706673582212209032ed13c72877211070a71f7fd17915959ef518824b20dd1f77e54acfc8da2364736f6c63430008110033",
  "linkReferences": {},
  "deployedLinkReferences": {}
}