{
  "_format": "hh-sol-artifact-1",
  "contractName": "SoulWallet",
  "sourceName": "contracts/SoulWallet.sol",
  "abi": [
    {
      "inputs": [],
      "stateMutability": "nonpayable",
      "type": "constructor"
    },
    {
      "anonymous": false,
      "inputs": [
        {
          "indexed": true,
          "internalType": "address",
          "name": "account",
          "type": "address"
        },
        {
          "indexed": true,
          "internalType": "address",
          "name": "entryPoint",
          "type": "address"
        },
        {
          "indexed": false,
          "internalType": "address",
          "name": "owner",
          "type": "address"
        },
        {
          "indexed": false,
          "internalType": "uint32",
          "name": "upgradeDelay",
          "type": "uint32"
        },
        {
          "indexed": false,
          "internalType": "uint32",
          "name": "guardianDelay",
          "type": "uint32"
        },
        {
          "indexed": false,
          "internalType": "address",
          "name": "guardian",
          "type": "address"
        }
      ],
      "name": "AccountInitialized",
      "type": "event"
    },
    {
      "anonymous": false,
      "inputs": [
        {
          "indexed": true,
          "internalType": "uint256",
          "name": "executionId",
          "type": "uint256"
        },
        {
          "indexed": false,
          "internalType": "bool",
          "name": "approved",
          "type": "bool"
        }
      ],
      "name": "Approved",
      "type": "event"
    },
    {
      "anonymous": false,
      "inputs": [
        {
          "indexed": true,
          "internalType": "bytes32",
          "name": "claimId",
          "type": "bytes32"
        },
        {
          "indexed": true,
          "internalType": "uint256",
          "name": "claimType",
          "type": "uint256"
        },
        {
          "indexed": false,
          "internalType": "uint256",
          "name": "scheme",
          "type": "uint256"
        },
        {
          "indexed": true,
          "internalType": "address",
          "name": "issuer",
          "type": "address"
        },
        {
          "indexed": false,
          "internalType": "bytes",
          "name": "signature",
          "type": "bytes"
        },
        {
          "indexed": false,
          "internalType": "bytes",
          "name": "data",
          "type": "bytes"
        },
        {
          "indexed": false,
          "internalType": "string",
          "name": "uri",
          "type": "string"
        }
      ],
      "name": "ClaimAdded",
      "type": "event"
    },
    {
      "anonymous": false,
      "inputs": [
        {
          "indexed": true,
          "internalType": "bytes32",
          "name": "claimId",
          "type": "bytes32"
        },
        {
          "indexed": true,
          "internalType": "uint256",
          "name": "claimType",
          "type": "uint256"
        },
        {
          "indexed": false,
          "internalType": "uint256",
          "name": "scheme",
          "type": "uint256"
        },
        {
          "indexed": true,
          "internalType": "address",
          "name": "issuer",
          "type": "address"
        },
        {
          "indexed": false,
          "internalType": "bytes",
          "name": "signature",
          "type": "bytes"
        },
        {
          "indexed": false,
          "internalType": "bytes",
          "name": "data",
          "type": "bytes"
        },
        {
          "indexed": false,
          "internalType": "string",
          "name": "uri",
          "type": "string"
        }
      ],
      "name": "ClaimChanged",
      "type": "event"
    },
    {
      "anonymous": false,
      "inputs": [
        {
          "indexed": true,
          "internalType": "bytes32",
          "name": "claimId",
          "type": "bytes32"
        },
        {
          "indexed": true,
          "internalType": "uint256",
          "name": "claimType",
          "type": "uint256"
        },
        {
          "indexed": false,
          "internalType": "uint256",
          "name": "scheme",
          "type": "uint256"
        },
        {
          "indexed": true,
          "internalType": "address",
          "name": "issuer",
          "type": "address"
        },
        {
          "indexed": false,
          "internalType": "bytes",
          "name": "signature",
          "type": "bytes"
        },
        {
          "indexed": false,
          "internalType": "bytes",
          "name": "data",
          "type": "bytes"
        },
        {
          "indexed": false,
          "internalType": "string",
          "name": "uri",
          "type": "string"
        }
      ],
      "name": "ClaimRemoved",
      "type": "event"
    },
    {
      "anonymous": false,
      "inputs": [
        {
          "indexed": true,
          "internalType": "uint256",
          "name": "claimRequestId",
          "type": "uint256"
        },
        {
          "indexed": true,
          "internalType": "uint256",
          "name": "claimType",
          "type": "uint256"
        },
        {
          "indexed": false,
          "internalType": "uint256",
          "name": "scheme",
          "type": "uint256"
        },
        {
          "indexed": true,
          "internalType": "address",
          "name": "issuer",
          "type": "address"
        },
        {
          "indexed": false,
          "internalType": "bytes",
          "name": "signature",
          "type": "bytes"
        },
        {
          "indexed": false,
          "internalType": "bytes",
          "name": "data",
          "type": "bytes"
        },
        {
          "indexed": false,
          "internalType": "string",
          "name": "uri",
          "type": "string"
        }
      ],
      "name": "ClaimRequested",
      "type": "event"
    },
    {
      "anonymous": false,
      "inputs": [
        {
          "indexed": false,
          "internalType": "address",
          "name": "guardian",
          "type": "address"
        }
      ],
      "name": "GuardianCanceled",
      "type": "event"
    },
    {
      "anonymous": false,
      "inputs": [
        {
          "indexed": false,
          "internalType": "address",
          "name": "guardian",
          "type": "address"
        },
        {
          "indexed": false,
          "internalType": "address",
          "name": "previousGuardian",
          "type": "address"
        }
      ],
      "name": "GuardianConfirmed",
      "type": "event"
    },
    {
      "anonymous": false,
      "inputs": [
        {
          "indexed": false,
          "internalType": "address",
          "name": "guardian",
          "type": "address"
        },
        {
          "indexed": false,
          "internalType": "uint64",
          "name": "activateTime",
          "type": "uint64"
        }
      ],
      "name": "GuardianSet",
      "type": "event"
    },
    {
      "anonymous": false,
      "inputs": [
        {
          "indexed": false,
          "internalType": "uint8",
          "name": "version",
          "type": "uint8"
        }
      ],
      "name": "Initialized",
      "type": "event"
    },
    {
      "anonymous": false,
      "inputs": [
        {
          "indexed": true,
          "internalType": "bytes32",
          "name": "key",
          "type": "bytes32"
        },
        {
          "indexed": true,
          "internalType": "uint256",
          "name": "purpose",
          "type": "uint256"
        },
        {
          "indexed": true,
          "internalType": "uint256",
          "name": "keyType",
          "type": "uint256"
        }
      ],
      "name": "KeyAdded",
      "type": "event"
    },
    {
      "anonymous": false,
      "inputs": [
        {
          "indexed": true,
          "internalType": "bytes32",
          "name": "key",
          "type": "bytes32"
        },
        {
          "indexed": true,
          "internalType": "uint256",
          "name": "purpose",
          "type": "uint256"
        },
        {
          "indexed": true,
          "internalType": "uint256",
          "name": "keyType",
          "type": "uint256"
        }
      ],
      "name": "KeyRemoved",
      "type": "event"
    },
    {
      "anonymous": false,
      "inputs": [
        {
          "indexed": false,
          "internalType": "address",
          "name": "newLogic",
          "type": "address"
        },
        {
          "indexed": false,
          "internalType": "uint64",
          "name": "activateTime",
          "type": "uint64"
        }
      ],
      "name": "PreUpgrade",
      "type": "event"
    },
    {
      "anonymous": false,
      "inputs": [
        {
          "indexed": true,
          "internalType": "bytes32",
          "name": "role",
          "type": "bytes32"
        },
        {
          "indexed": true,
          "internalType": "bytes32",
          "name": "previousAdminRole",
          "type": "bytes32"
        },
        {
          "indexed": true,
          "internalType": "bytes32",
          "name": "newAdminRole",
          "type": "bytes32"
        }
      ],
      "name": "RoleAdminChanged",
      "type": "event"
    },
    {
      "anonymous": false,
      "inputs": [
        {
          "indexed": true,
          "internalType": "bytes32",
          "name": "role",
          "type": "bytes32"
        },
        {
          "indexed": true,
          "internalType": "address",
          "name": "account",
          "type": "address"
        },
        {
          "indexed": true,
          "internalType": "address",
          "name": "sender",
          "type": "address"
        }
      ],
      "name": "RoleGranted",
      "type": "event"
    },
    {
      "anonymous": false,
      "inputs": [
        {
          "indexed": true,
          "internalType": "bytes32",
          "name": "role",
          "type": "bytes32"
        },
        {
          "indexed": true,
          "internalType": "address",
          "name": "account",
          "type": "address"
        },
        {
          "indexed": true,
          "internalType": "address",
          "name": "sender",
          "type": "address"
        }
      ],
      "name": "RoleRevoked",
      "type": "event"
    },
    {
      "anonymous": false,
      "inputs": [
        {
          "indexed": false,
          "internalType": "address",
          "name": "newImplementation",
          "type": "address"
        }
      ],
      "name": "Upgraded",
      "type": "event"
    },
    {
      "inputs": [],
      "name": "DEFAULT_ADMIN_ROLE",
      "outputs": [
        {
          "internalType": "bytes32",
          "name": "",
          "type": "bytes32"
        }
      ],
      "stateMutability": "view",
      "type": "function"
    },
    {
      "inputs": [
        {
          "internalType": "uint256",
          "name": "_claimType",
          "type": "uint256"
        },
        {
          "internalType": "uint256",
          "name": "_scheme",
          "type": "uint256"
        },
        {
          "internalType": "address",
          "name": "_issuer",
          "type": "address"
        },
        {
          "internalType": "bytes",
          "name": "_signature",
          "type": "bytes"
        },
        {
          "internalType": "bytes",
          "name": "_data",
          "type": "bytes"
        },
        {
          "internalType": "string",
          "name": "_uri",
          "type": "string"
        }
      ],
      "name": "addClaim",
      "outputs": [
        {
          "internalType": "bytes32",
          "name": "claimRequestId",
          "type": "bytes32"
        }
      ],
      "stateMutability": "nonpayable",
      "type": "function"
    },
    {
      "inputs": [],
      "name": "addDeposit",
      "outputs": [],
      "stateMutability": "payable",
      "type": "function"
    },
    {
      "inputs": [
        {
          "internalType": "bytes32",
          "name": "_key",
          "type": "bytes32"
        },
        {
          "internalType": "uint256",
          "name": "_purpose",
          "type": "uint256"
        },
        {
          "internalType": "uint256",
          "name": "_type",
          "type": "uint256"
        }
      ],
      "name": "addKey",
      "outputs": [
        {
          "internalType": "bool",
          "name": "success",
          "type": "bool"
        }
      ],
      "stateMutability": "nonpayable",
      "type": "function"
    },
    {
      "inputs": [
        {
          "internalType": "address",
          "name": "guardian",
          "type": "address"
        }
      ],
      "name": "cancelGuardian",
      "outputs": [],
      "stateMutability": "nonpayable",
      "type": "function"
    },
    {
      "inputs": [],
      "name": "entryPoint",
      "outputs": [
        {
          "internalType": "contract IEntryPoint",
          "name": "",
          "type": "address"
        }
      ],
      "stateMutability": "view",
      "type": "function"
    },
    {
      "inputs": [
        {
          "internalType": "address",
          "name": "dest",
          "type": "address"
        },
        {
          "internalType": "uint256",
          "name": "value",
          "type": "uint256"
        },
        {
          "internalType": "bytes",
          "name": "func",
          "type": "bytes"
        }
      ],
      "name": "exec",
      "outputs": [],
      "stateMutability": "nonpayable",
      "type": "function"
    },
    {
      "inputs": [
        {
          "internalType": "address[]",
          "name": "dest",
          "type": "address[]"
        },
        {
          "internalType": "uint256[]",
          "name": "value",
          "type": "uint256[]"
        },
        {
          "internalType": "bytes[]",
          "name": "func",
          "type": "bytes[]"
        }
      ],
      "name": "execBatch",
      "outputs": [],
      "stateMutability": "nonpayable",
      "type": "function"
    },
    {
      "inputs": [
        {
          "internalType": "address[]",
          "name": "dest",
          "type": "address[]"
        },
        {
          "internalType": "uint256[]",
          "name": "value",
          "type": "uint256[]"
        },
        {
          "internalType": "bytes[]",
          "name": "func",
          "type": "bytes[]"
        }
      ],
      "name": "execFromEntryPoint",
      "outputs": [],
      "stateMutability": "nonpayable",
      "type": "function"
    },
    {
      "inputs": [
        {
          "internalType": "address",
          "name": "dest",
          "type": "address"
        },
        {
          "internalType": "uint256",
          "name": "value",
          "type": "uint256"
        },
        {
          "internalType": "bytes",
          "name": "func",
          "type": "bytes"
        }
      ],
      "name": "execFromEntryPoint",
      "outputs": [],
      "stateMutability": "nonpayable",
      "type": "function"
    },
    {
      "inputs": [
        {
          "internalType": "bytes32",
          "name": "_claimId",
          "type": "bytes32"
        }
      ],
      "name": "getClaim",
      "outputs": [
        {
          "internalType": "uint256",
          "name": "claimType",
          "type": "uint256"
        },
        {
          "internalType": "uint256",
          "name": "scheme",
          "type": "uint256"
        },
        {
          "internalType": "address",
          "name": "issuer",
          "type": "address"
        },
        {
          "internalType": "bytes",
          "name": "signature",
          "type": "bytes"
        },
        {
          "internalType": "bytes",
          "name": "data",
          "type": "bytes"
        },
        {
          "internalType": "string",
          "name": "uri",
          "type": "string"
        }
      ],
      "stateMutability": "view",
      "type": "function"
    },
    {
      "inputs": [
        {
          "internalType": "uint256",
          "name": "_claimType",
          "type": "uint256"
        }
      ],
      "name": "getClaimIdsByType",
      "outputs": [
        {
          "internalType": "bytes32[]",
          "name": "claimIds",
          "type": "bytes32[]"
        }
      ],
      "stateMutability": "view",
      "type": "function"
    },
    {
      "inputs": [],
      "name": "getDeposit",
      "outputs": [
        {
          "internalType": "uint256",
          "name": "",
          "type": "uint256"
        }
      ],
      "stateMutability": "view",
      "type": "function"
    },
    {
      "inputs": [
        {
          "internalType": "bytes32",
          "name": "_key",
          "type": "bytes32"
        }
      ],
      "name": "getKey",
      "outputs": [
        {
          "internalType": "uint256",
          "name": "purpose",
          "type": "uint256"
        },
        {
          "internalType": "uint256",
          "name": "keyType",
          "type": "uint256"
        },
        {
          "internalType": "bytes32",
          "name": "key",
          "type": "bytes32"
        }
      ],
      "stateMutability": "view",
      "type": "function"
    },
    {
      "inputs": [
        {
          "internalType": "bytes32",
          "name": "_key",
          "type": "bytes32"
        }
      ],
      "name": "getKeyPurpose",
      "outputs": [
        {
          "internalType": "uint256",
          "name": "purpose",
          "type": "uint256"
        }
      ],
      "stateMutability": "view",
      "type": "function"
    },
    {
      "inputs": [
        {
          "internalType": "uint256",
          "name": "_purpose",
          "type": "uint256"
        }
      ],
      "name": "getKeysByPurpose",
      "outputs": [
        {
          "internalType": "bytes32[]",
          "name": "_keys",
          "type": "bytes32[]"
        }
      ],
      "stateMutability": "view",
      "type": "function"
    },
    {
      "inputs": [
        {
          "internalType": "bytes32",
          "name": "role",
          "type": "bytes32"
        }
      ],
      "name": "getRoleAdmin",
      "outputs": [
        {
          "internalType": "bytes32",
          "name": "",
          "type": "bytes32"
        }
      ],
      "stateMutability": "view",
      "type": "function"
    },
    {
      "inputs": [
        {
          "internalType": "bytes32",
          "name": "role",
          "type": "bytes32"
        },
        {
          "internalType": "uint256",
          "name": "index",
          "type": "uint256"
        }
      ],
      "name": "getRoleMember",
      "outputs": [
        {
          "internalType": "address",
          "name": "",
          "type": "address"
        }
      ],
      "stateMutability": "view",
      "type": "function"
    },
    {
      "inputs": [
        {
          "internalType": "bytes32",
          "name": "role",
          "type": "bytes32"
        }
      ],
      "name": "getRoleMemberCount",
      "outputs": [
        {
          "internalType": "uint256",
          "name": "",
          "type": "uint256"
        }
      ],
      "stateMutability": "view",
      "type": "function"
    },
    {
      "inputs": [],
      "name": "getVersion",
      "outputs": [
        {
          "internalType": "uint256",
          "name": "",
          "type": "uint256"
        }
      ],
      "stateMutability": "pure",
      "type": "function"
    },
    {
      "inputs": [
        {
          "internalType": "bytes32",
          "name": "role",
          "type": "bytes32"
        },
        {
          "internalType": "address",
          "name": "account",
          "type": "address"
        }
      ],
      "name": "grantRole",
      "outputs": [],
      "stateMutability": "nonpayable",
      "type": "function"
    },
    {
      "inputs": [],
      "name": "guardianInfo",
      "outputs": [
        {
          "internalType": "address",
          "name": "",
          "type": "address"
        },
        {
          "internalType": "address",
          "name": "",
          "type": "address"
        },
        {
          "internalType": "uint64",
          "name": "",
          "type": "uint64"
        },
        {
          "internalType": "uint32",
          "name": "",
          "type": "uint32"
        }
      ],
      "stateMutability": "view",
      "type": "function"
    },
    {
      "inputs": [],
      "name": "guardianProcess",
      "outputs": [
        {
          "internalType": "bool",
          "name": "",
          "type": "bool"
        }
      ],
      "stateMutability": "nonpayable",
      "type": "function"
    },
    {
      "inputs": [
        {
          "internalType": "bytes32",
          "name": "role",
          "type": "bytes32"
        },
        {
          "internalType": "address",
          "name": "account",
          "type": "address"
        }
      ],
      "name": "hasRole",
      "outputs": [
        {
          "internalType": "bool",
          "name": "",
          "type": "bool"
        }
      ],
      "stateMutability": "view",
      "type": "function"
    },
    {
      "inputs": [
        {
          "internalType": "contract IEntryPoint",
          "name": "_entryPoint",
          "type": "address"
        },
        {
          "internalType": "address",
          "name": "_owner",
          "type": "address"
        },
        {
          "internalType": "uint32",
          "name": "_upgradeDelay",
          "type": "uint32"
        },
        {
          "internalType": "uint32",
          "name": "_guardianDelay",
          "type": "uint32"
        },
        {
          "internalType": "address",
          "name": "_guardian",
          "type": "address"
        }
      ],
      "name": "initialize",
      "outputs": [],
      "stateMutability": "nonpayable",
      "type": "function"
    },
    {
      "inputs": [
        {
          "internalType": "address",
          "name": "account",
          "type": "address"
        }
      ],
      "name": "isOwner",
      "outputs": [
        {
          "internalType": "bool",
          "name": "",
          "type": "bool"
        }
      ],
      "stateMutability": "view",
      "type": "function"
    },
    {
      "inputs": [
        {
          "internalType": "bytes32",
          "name": "hash",
          "type": "bytes32"
        },
        {
          "internalType": "bytes",
          "name": "signature",
          "type": "bytes"
        }
      ],
      "name": "isValidSignature",
      "outputs": [
        {
          "internalType": "bytes4",
          "name": "",
          "type": "bytes4"
        }
      ],
      "stateMutability": "view",
      "type": "function"
    },
    {
      "inputs": [
        {
          "internalType": "bytes32",
          "name": "_key",
          "type": "bytes32"
        },
        {
          "internalType": "uint256",
          "name": "_purpose",
          "type": "uint256"
        }
      ],
      "name": "keyHasPurpose",
      "outputs": [
        {
          "internalType": "bool",
          "name": "result",
          "type": "bool"
        }
      ],
      "stateMutability": "view",
      "type": "function"
    },
    {
      "inputs": [],
      "name": "logicUpgradeInfo",
      "outputs": [
        {
          "components": [
            {
              "internalType": "uint32",
              "name": "upgradeDelay",
              "type": "uint32"
            },
            {
              "internalType": "uint64",
              "name": "activateTime",
              "type": "uint64"
            },
            {
              "internalType": "address",
              "name": "pendingImplementation",
              "type": "address"
            },
            {
              "internalType": "uint256[50]",
              "name": "__gap",
              "type": "uint256[50]"
            }
          ],
          "internalType": "struct ILogicUpgradeControl.UpgradeLayout",
          "name": "",
          "type": "tuple"
        }
      ],
      "stateMutability": "view",
      "type": "function"
    },
    {
      "inputs": [],
      "name": "nonce",
      "outputs": [
        {
          "internalType": "uint256",
          "name": "",
          "type": "uint256"
        }
      ],
      "stateMutability": "view",
      "type": "function"
    },
    {
      "inputs": [
        {
          "internalType": "address",
          "name": "",
          "type": "address"
        },
        {
          "internalType": "address",
          "name": "",
          "type": "address"
        },
        {
          "internalType": "uint256[]",
          "name": "",
          "type": "uint256[]"
        },
        {
          "internalType": "uint256[]",
          "name": "",
          "type": "uint256[]"
        },
        {
          "internalType": "bytes",
          "name": "",
          "type": "bytes"
        }
      ],
      "name": "onERC1155BatchReceived",
      "outputs": [
        {
          "internalType": "bytes4",
          "name": "",
          "type": "bytes4"
        }
      ],
      "stateMutability": "pure",
      "type": "function"
    },
    {
      "inputs": [
        {
          "internalType": "address",
          "name": "",
          "type": "address"
        },
        {
          "internalType": "address",
          "name": "",
          "type": "address"
        },
        {
          "internalType": "uint256",
          "name": "",
          "type": "uint256"
        },
        {
          "internalType": "uint256",
          "name": "",
          "type": "uint256"
        },
        {
          "internalType": "bytes",
          "name": "",
          "type": "bytes"
        }
      ],
      "name": "onERC1155Received",
      "outputs": [
        {
          "internalType": "bytes4",
          "name": "",
          "type": "bytes4"
        }
      ],
      "stateMutability": "pure",
      "type": "function"
    },
    {
      "inputs": [
        {
          "internalType": "address",
          "name": "",
          "type": "address"
        },
        {
          "internalType": "address",
          "name": "",
          "type": "address"
        },
        {
          "internalType": "uint256",
          "name": "",
          "type": "uint256"
        },
        {
          "internalType": "bytes",
          "name": "",
          "type": "bytes"
        }
      ],
      "name": "onERC721Received",
      "outputs": [
        {
          "internalType": "bytes4",
          "name": "",
          "type": "bytes4"
        }
      ],
      "stateMutability": "pure",
      "type": "function"
    },
    {
      "inputs": [
        {
          "internalType": "address",
          "name": "newImplementation",
          "type": "address"
        }
      ],
      "name": "preUpgradeTo",
      "outputs": [],
      "stateMutability": "nonpayable",
      "type": "function"
    },
    {
      "inputs": [
        {
          "internalType": "bytes32",
          "name": "_claimId",
          "type": "bytes32"
        }
      ],
      "name": "removeClaim",
      "outputs": [
        {
          "internalType": "bool",
          "name": "success",
          "type": "bool"
        }
      ],
      "stateMutability": "nonpayable",
      "type": "function"
    },
    {
      "inputs": [
        {
          "internalType": "bytes32",
          "name": "_key",
          "type": "bytes32"
        }
      ],
      "name": "removeKey",
      "outputs": [
        {
          "internalType": "bool",
          "name": "success",
          "type": "bool"
        }
      ],
      "stateMutability": "nonpayable",
      "type": "function"
    },
    {
      "inputs": [
        {
          "internalType": "bytes32",
          "name": "role",
          "type": "bytes32"
        },
        {
          "internalType": "address",
          "name": "account",
          "type": "address"
        }
      ],
      "name": "renounceRole",
      "outputs": [],
      "stateMutability": "nonpayable",
      "type": "function"
    },
    {
      "inputs": [
        {
          "internalType": "bytes32",
          "name": "role",
          "type": "bytes32"
        },
        {
          "internalType": "address",
          "name": "account",
          "type": "address"
        }
      ],
      "name": "revokeRole",
      "outputs": [],
      "stateMutability": "nonpayable",
      "type": "function"
    },
    {
      "inputs": [
        {
          "internalType": "address",
          "name": "guardian",
          "type": "address"
        }
      ],
      "name": "setGuardian",
      "outputs": [],
      "stateMutability": "nonpayable",
      "type": "function"
    },
    {
      "inputs": [
        {
          "internalType": "bytes4",
          "name": "_interfaceID",
          "type": "bytes4"
        }
      ],
      "name": "supportsInterface",
      "outputs": [
        {
          "internalType": "bool",
          "name": "",
          "type": "bool"
        }
      ],
      "stateMutability": "view",
      "type": "function"
    },
    {
      "inputs": [
        {
          "internalType": "address",
          "name": "",
          "type": "address"
        },
        {
          "internalType": "address",
          "name": "",
          "type": "address"
        },
        {
          "internalType": "address",
          "name": "",
          "type": "address"
        },
        {
          "internalType": "uint256",
          "name": "",
          "type": "uint256"
        },
        {
          "internalType": "bytes",
          "name": "",
          "type": "bytes"
        },
        {
          "internalType": "bytes",
          "name": "",
          "type": "bytes"
        }
      ],
      "name": "tokensReceived",
      "outputs": [],
      "stateMutability": "pure",
      "type": "function"
    },
    {
      "inputs": [
        {
          "internalType": "address payable",
          "name": "dest",
          "type": "address"
        },
        {
          "internalType": "uint256",
          "name": "amount",
          "type": "uint256"
        }
      ],
      "name": "transfer",
      "outputs": [],
      "stateMutability": "nonpayable",
      "type": "function"
    },
    {
      "inputs": [
        {
          "internalType": "address",
          "name": "newOwner",
          "type": "address"
        }
      ],
      "name": "transferOwner",
      "outputs": [],
      "stateMutability": "nonpayable",
      "type": "function"
    },
    {
      "inputs": [],
      "name": "upgrade",
      "outputs": [],
      "stateMutability": "nonpayable",
      "type": "function"
    },
    {
      "inputs": [
        {
          "components": [
            {
              "internalType": "address",
              "name": "sender",
              "type": "address"
            },
            {
              "internalType": "uint256",
              "name": "nonce",
              "type": "uint256"
            },
            {
              "internalType": "bytes",
              "name": "initCode",
              "type": "bytes"
            },
            {
              "internalType": "bytes",
              "name": "callData",
              "type": "bytes"
            },
            {
              "internalType": "uint256",
              "name": "callGasLimit",
              "type": "uint256"
            },
            {
              "internalType": "uint256",
              "name": "verificationGasLimit",
              "type": "uint256"
            },
            {
              "internalType": "uint256",
              "name": "preVerificationGas",
              "type": "uint256"
            },
            {
              "internalType": "uint256",
              "name": "maxFeePerGas",
              "type": "uint256"
            },
            {
              "internalType": "uint256",
              "name": "maxPriorityFeePerGas",
              "type": "uint256"
            },
            {
              "internalType": "bytes",
              "name": "paymasterAndData",
              "type": "bytes"
            },
            {
              "internalType": "bytes",
              "name": "signature",
              "type": "bytes"
            }
          ],
          "internalType": "struct UserOperation",
          "name": "userOp",
          "type": "tuple"
        },
        {
          "internalType": "bytes32",
          "name": "userOpHash",
          "type": "bytes32"
        },
        {
          "internalType": "address",
          "name": "aggregator",
          "type": "address"
        },
        {
          "internalType": "uint256",
          "name": "missingAccountFunds",
          "type": "uint256"
        }
      ],
      "name": "validateUserOp",
      "outputs": [
        {
          "internalType": "uint256",
          "name": "deadline",
          "type": "uint256"
        }
      ],
      "stateMutability": "nonpayable",
      "type": "function"
    },
    {
      "inputs": [
        {
          "internalType": "address payable",
          "name": "withdrawAddress",
          "type": "address"
        },
        {
          "internalType": "uint256",
          "name": "amount",
          "type": "uint256"
        }
      ],
      "name": "withdrawDepositTo",
      "outputs": [],
      "stateMutability": "nonpayable",
      "type": "function"
    },
    {
      "stateMutability": "payable",
      "type": "receive"
    }
  ],
  "bytecode": "0x60a060405260405162000012906200016a565b604051809103906000f0801580156200002f573d6000803e3d6000fd5b506001600160a01b03166080523480156200004957600080fd5b50620000546200005a565b62000178565b60006200006662000127565b8054909150610100900460ff1615620000d55760405162461bcd60e51b815260206004820152602760248201527f496e697469616c697a61626c653a20636f6e747261637420697320696e697469604482015266616c697a696e6760c81b606482015260840160405180910390fd5b805460ff90811610156200012457805460ff191660ff90811782556040519081527f7f26b83ff96e1f2b6a682f133852f6798a09c465da95921460cefb38474024989060200160405180910390a15b50565b60006200013e6200014660201b620027c91760201c565b606701905090565b7ff8a710ee80f631cf345664111f4640826662740a1425b833ce4638e14a4e7e0e90565b610233806200526e83390190565b6080516150da62000194600039600061398d01526150da6000f3fe6080604052600436106103005760003560e01c8063827786541161018f578063b0d691fe116100e1578063d202158d1161008a578063f23a6e6111610064578063f23a6e6114610a52578063f2523e1814610a98578063f5b1902914610aba57600080fd5b8063d202158d146109fd578063d547741f14610a1d578063d55ec69714610a3d57600080fd5b8063c399ec88116100bb578063c399ec8814610996578063c9100bcb146109ab578063ca15c873146109dd57600080fd5b8063b0d691fe146108f1578063b1a34e0d1461092e578063bc197c811461094e57600080fd5b80639191935e11610143578063a4d892511161011d578063a4d8925114610868578063a9059cbb14610888578063affed0e0146108a857600080fd5b80639191935e146107d957806391d14854146107ee578063a217fddf1461085357600080fd5b80638a0dac4a116101745780638a0dac4a146107615780639010d07c146107815780639010f726146107b957600080fd5b80638277865414610721578063862642f51461074157600080fd5b8063248a9ca3116102535780634a58db19116101fc5780634fb2e45d116101d65780634fb2e45d1461068c5780637426bbc0146106ac57806380c5c7d01461070157600080fd5b80634a58db19146106445780634d44560d1461064c5780634eee424a1461066c57600080fd5b80632f2ff15d1161022d5780632f2ff15d146105e45780632f54bf6e1461060457806336568abe1461062457600080fd5b8063248a9ca314610548578063262b54f5146105975780632763604f146105c457600080fd5b80630825d1fc116102b5578063150b7a021161028f578063150b7a02146104aa5780631626ba7e146105085780631d3812401461052857600080fd5b80630825d1fc146104025780630d8e6e2c1461042257806312aaac701461043657600080fd5b8063032c1a8a116102e6578063032c1a8a1461036857806303bc8316146103c25780630565bb67146103e257600080fd5b806223de291461030c57806301ffc9a71461033357600080fd5b3661030757005b600080fd5b34801561031857600080fd5b5061033161032736600461421f565b5050505050505050565b005b34801561033f57600080fd5b5061035361034e3660046142d0565b610ada565b60405190151581526020015b60405180910390f35b34801561037457600080fd5b506103b46103833660046142fa565b60009081527ff8a710ee80f631cf345664111f4640826662740a1425b833ce4638e14a4e7f42602052604090205490565b60405190815260200161035f565b3480156103ce57600080fd5b506103316103dd366004614313565b610aeb565b3480156103ee57600080fd5b506103316103fd366004614330565b610b7f565b34801561040e57600080fd5b506103b461041d36600461438c565b610c12565b34801561042e57600080fd5b5060016103b4565b34801561044257600080fd5b5061048f6104513660046142fa565b60009081527ff8a710ee80f631cf345664111f4640826662740a1425b833ce4638e14a4e7f4260205260409020805460018201546002909201549092565b6040805193845260208401929092529082015260600161035f565b3480156104b657600080fd5b506104ef6104c53660046143f3565b7f150b7a020000000000000000000000000000000000000000000000000000000095945050505050565b6040516001600160e01b0319909116815260200161035f565b34801561051457600080fd5b506104ef610523366004614533565b610c59565b34801561053457600080fd5b5061035361054336600461457a565b610cdc565b34801561055457600080fd5b506103b46105633660046142fa565b60009081527ff8a710ee80f631cf345664111f4640826662740a1425b833ce4638e14a4e7ea8602052604090206001015490565b3480156105a357600080fd5b506105b76105b23660046142fa565b610e8c565b60405161035f91906145a6565b3480156105d057600080fd5b506103316105df36600461462f565b610f33565b3480156105f057600080fd5b506103316105ff3660046146c9565b61105c565b34801561061057600080fd5b5061035361061f366004614313565b6110a5565b34801561063057600080fd5b5061033161063f3660046146c9565b6110e5565b610331611171565b34801561065857600080fd5b506103316106673660046146f9565b611201565b34801561067857600080fd5b506103536106873660046142fa565b6112f9565b34801561069857600080fd5b506103316106a7366004614313565b61149b565b3480156106b857600080fd5b506106c1611593565b604080516001600160a01b03958616815294909316602085015267ffffffffffffffff9091169183019190915263ffffffff16606082015260800161035f565b34801561070d57600080fd5b5061033161071c366004614330565b6116a1565b34801561072d57600080fd5b5061033161073c366004614739565b6116a9565b34801561074d57600080fd5b5061035361075c3660046142fa565b611ae0565b34801561076d57600080fd5b5061033161077c366004614313565b611bcb565b34801561078d57600080fd5b506107a161079c3660046147a6565b611c57565b6040516001600160a01b03909116815260200161035f565b3480156107c557600080fd5b506105b76107d43660046142fa565b611c8e565b3480156107e557600080fd5b50610353611d33565b3480156107fa57600080fd5b506103536108093660046146c9565b60009182527ff8a710ee80f631cf345664111f4640826662740a1425b833ce4638e14a4e7ea8602090815260408084206001600160a01b0393909316845291905290205460ff1690565b34801561085f57600080fd5b506103b4600081565b34801561087457600080fd5b5061033161088336600461462f565b611d65565b34801561089457600080fd5b506103316108a33660046146f9565b611e32565b3480156108b457600080fd5b507ff8a710ee80f631cf345664111f4640826662740a1425b833ce4638e14a4e7e0f54600160a01b90046bffffffffffffffffffffffff166103b4565b3480156108fd57600080fd5b507ff8a710ee80f631cf345664111f4640826662740a1425b833ce4638e14a4e7e0f546001600160a01b03166107a1565b34801561093a57600080fd5b506103b46109493660046147c8565b611eb4565b34801561095a57600080fd5b506104ef610969366004614889565b7fbc197c810000000000000000000000000000000000000000000000000000000098975050505050505050565b3480156109a257600080fd5b506103b46120f6565b3480156109b757600080fd5b506109cb6109c63660046142fa565b6121b1565b60405161035f96959493929190614977565b3480156109e957600080fd5b506103b46109f83660046142fa565b6123d1565b348015610a0957600080fd5b50610353610a183660046147a6565b612407565b348015610a2957600080fd5b50610331610a383660046146c9565b612462565b348015610a4957600080fd5b506103316124a6565b348015610a5e57600080fd5b506104ef610a6d3660046149d8565b7ff23a6e61000000000000000000000000000000000000000000000000000000009695505050505050565b348015610aa457600080fd5b50610aad61266b565b60405161035f9190614a42565b348015610ac657600080fd5b50610331610ad5366004614313565b61273d565b6000610ae5826127ed565b92915050565b610af4336110a5565b80610b2857507ff8a710ee80f631cf345664111f4640826662740a1425b833ce4638e14a4e7e0f546001600160a01b031633145b80610b3257503330145b610b735760405162461bcd60e51b815260206004820152600d60248201526c3737903832b936b4b9b9b4b7b760991b60448201526064015b60405180910390fd5b610b7c81612893565b50565b610b88336110a5565b80610b9257503330145b610bcb5760405162461bcd60e51b815260206004820152600a60248201526937b7363c9037bbb732b960b11b6044820152606401610b6a565b610c0c848484848080601f016020809104026020016040519081016040528093929190818152602001838380828437600092019190915250612a1692505050565b50505050565b6000610c1c612a8d565b610c27858585612b08565b9050610c366040860186614aaf565b9050600003610c4857610c4885612bde565b610c5182612cb3565b949350505050565b6000610c6861061f8484612d00565b610cb45760405162461bcd60e51b815260206004820152601d60248201527f536f756c57616c6c65743a20496e76616c6964207369676e61747572650000006044820152606401610b6a565b507f1626ba7e0000000000000000000000000000000000000000000000000000000092915050565b60008381527ff8a710ee80f631cf345664111f4640826662740a1425b833ce4638e14a4e7f4260208190526040822060020154859003610d5e5760405162461bcd60e51b815260206004820152601260248201527f4b657920616c72656164792065786973747300000000000000000000000000006044820152606401610b6a565b333014610e17576040516bffffffffffffffffffffffff193360601b166020820152610da5906034015b604051602081830303815290604052805190602001206001612407565b610e175760405162461bcd60e51b815260206004820152602360248201527f53656e64657220646f6573206e6f742068617665206d616e6167656d656e742060448201527f6b657900000000000000000000000000000000000000000000000000000000006064820152608401610b6a565b6000858152602082815260408083206002810189905587815560019081018790558784528085018352818420805491820181558452918320909101879055518491869188917f480000bb1edad8ca1470381cc334b1917fbd51c6531f3a623ea8e0ec7e38a6e991a460019150505b9392505050565b60008181527ff8a710ee80f631cf345664111f4640826662740a1425b833ce4638e14a4e7fa9602090815260409182902080548351818402810184019094528084526060937ff8a710ee80f631cf345664111f4640826662740a1425b833ce4638e14a4e7fa89390929190830182828015610f2657602002820191906000526020600020905b815481526020019060010190808311610f12575b5050505050915050919050565b610f3b612a8d565b8481148015610f4957508483145b610f955760405162461bcd60e51b815260206004820152601360248201527f77726f6e67206172726179206c656e67746873000000000000000000000000006044820152606401610b6a565b60005b8581101561105357611041878783818110610fb557610fb5614b14565b9050602002016020810190610fca9190614313565b868684818110610fdc57610fdc614b14565b90506020020135858585818110610ff557610ff5614b14565b90506020028101906110079190614aaf565b8080601f016020809104026020016040519081016040528093929190818152602001838380828437600092019190915250612a1692505050565b8061104b81614b40565b915050610f98565b50505050505050565b60008281527ff8a710ee80f631cf345664111f4640826662740a1425b833ce4638e14a4e7ea8602052604090206001015461109681612d24565b6110a08383612d2e565b505050565b6001600160a01b03811660009081527fb1fbfa299f7888201aaeb5dc697bc6b0c8bbf0cedca8ca379725cca19bc54839602052604081205460ff16610ae5565b6001600160a01b03811633146111635760405162461bcd60e51b815260206004820152602f60248201527f416363657373436f6e74726f6c3a2063616e206f6e6c792072656e6f756e636560448201527f20726f6c657320666f722073656c6600000000000000000000000000000000006064820152608401610b6a565b61116d8282612d6f565b5050565b60006111a47ff8a710ee80f631cf345664111f4640826662740a1425b833ce4638e14a4e7e0f546001600160a01b031690565b6001600160a01b03163460405160006040518083038185875af1925050503d80600081146111ee576040519150601f19603f3d011682016040523d82523d6000602084013e6111f3565b606091505b5050905080610b7c57600080fd5b61120a336110a5565b8061121457503330145b61124d5760405162461bcd60e51b815260206004820152600a60248201526937b7363c9037bbb732b960b11b6044820152606401610b6a565b7ff8a710ee80f631cf345664111f4640826662740a1425b833ce4638e14a4e7e0f546001600160a01b03166040517f205c28780000000000000000000000000000000000000000000000000000000081526001600160a01b03848116600483015260248201849052919091169063205c287890604401600060405180830381600087803b1580156112dd57600080fd5b505af11580156112f1573d6000803e3d6000fd5b505050505050565b60007ff8a710ee80f631cf345664111f4640826662740a1425b833ce4638e14a4e7fa83033146113bc576040516bffffffffffffffffffffffff193360601b16602082015261134a90603401610d88565b6113bc5760405162461bcd60e51b815260206004820152602360248201527f53656e64657220646f6573206e6f742068617665206d616e6167656d656e742060448201527f6b657900000000000000000000000000000000000000000000000000000000006064820152608401610b6a565b6000838152602082905260409081902060028101548154600183015493516001600160a01b0390921693909287927f3cf57863a89432c61c4a27073c6ee39e8a764bff5a05aebfbcdcdc80b2e6130a9261142792909160038201916004810191600590910190614c11565b60405180910390a460008381526020829052604081208181556001810182905560028101805473ffffffffffffffffffffffffffffffffffffffff19169055906114746003830182614128565b611482600483016000614128565b611490600583016000614128565b506001949350505050565b6114a4336110a5565b806114d857507ff8a710ee80f631cf345664111f4640826662740a1425b833ce4638e14a4e7e0f546001600160a01b031633145b806114e257503330145b61151e5760405162461bcd60e51b815260206004820152600d60248201526c3737903832b936b4b9b9b4b7b760991b6044820152606401610b6a565b6001600160a01b0381166115745760405162461bcd60e51b815260206004820152601460248201527f4f776e65722063616e6e6f74206265207a65726f0000000000000000000000006044820152606401610b6a565b61158860006115838180611c57565b612d6f565b610b7c600082612d2e565b6040805160a0810182527ff8a710ee80f631cf345664111f4640826662740a1425b833ce4638e14a4e7edc80546001600160a01b0390811683527ff8a710ee80f631cf345664111f4640826662740a1425b833ce4638e14a4e7edd549081166020840152600160a01b810467ffffffffffffffff1683850152600160e01b900463ffffffff166060830152825161064081019384905260009384938493849384936080840191907ff8a710ee80f631cf345664111f4640826662740a1425b833ce4638e14a4e7ede9060329082845b81548152602001906001019080831161166257505050919092525050815160208301516040840151606090940151919990985092965094509092505050565b610bcb612a8d565b7ff8a710ee80f631cf345664111f4640826662740a1425b833ce4638e14a4e7e758054610100900460ff16158080156116e857508154600160ff909116105b806117015750303b1580156117015750815460ff166001145b6117735760405162461bcd60e51b815260206004820152602e60248201527f496e697469616c697a61626c653a20636f6e747261637420697320616c72656160448201527f647920696e697469616c697a65640000000000000000000000000000000000006064820152608401610b6a565b815460ff19166001178255801561179257815461ff0019166101001782555b6001600160a01b0386166117e85760405162461bcd60e51b815260206004820152601460248201527f4f776e65722063616e6e6f74206265207a65726f0000000000000000000000006044820152606401610b6a565b6117f3600087612d2e565b7ff8a710ee80f631cf345664111f4640826662740a1425b833ce4638e14a4e7e0f805473ffffffffffffffffffffffffffffffffffffffff19166001600160a01b0389161790557ff8a710ee80f631cf345664111f4640826662740a1425b833ce4638e14a4e7e0e63ffffffff86166118ae5760405162461bcd60e51b815260206004820152601c60248201527f557067726164652064656c61792063616e6e6f74206265207a65726f000000006044820152606401610b6a565b6034810180547fffffffffffffffffffffffffffffffffffffffffffffffffffffffff000000001663ffffffff8881169190911790915560ce82019086166119385760405162461bcd60e51b815260206004820152601d60248201527f477561726469616e2064656c61792063616e6e6f74206265207a65726f0000006044820152606401610b6a565b6001810180547bffffffffffffffffffffffffffffffffffffffffffffffffffffffff16600160e01b63ffffffff8916021790556001600160a01b03851615611985576119858186612db0565b604080516001600160a01b038a8116825263ffffffff8a8116602084015289168284015287811660608301529151918b169130917fdc05b1fe49232f5301e46b54cc2c576386bb7505a9adbf2522608e94aec6e361919081900360800190a36040516bffffffffffffffffffffffff1960608a901b16602082015261013483019060009060340160408051601f198184030181528282528051602091820120600081815286835283812060028101839055600180825580820181905580835280890185529482208054808701825590835284832001839055828252928790529154909450919284917f480000bb1edad8ca1470381cc334b1917fbd51c6531f3a623ea8e0ec7e38a6e991a450505050801561105357815461ff0019168255604051600181527f7f26b83ff96e1f2b6a682f133852f6798a09c465da95921460cefb38474024989060200160405180910390a150505050505050565b60008181527ff8a710ee80f631cf345664111f4640826662740a1425b833ce4638e14a4e7f42602081905260408220600201548314611b615760405162461bcd60e51b815260206004820152600b60248201527f4e6f2073756368206b65790000000000000000000000000000000000000000006044820152606401610b6a565b60008381526020829052604080822060018101548154600290920154925190939192917f585a4aef50f8267a92b32412b331b20f7f8b96f2245b253b9cc50dcc621d339791a460009283526020525060408120818155600180820183905560029091019190915590565b611bd4336110a5565b80611c0857507ff8a710ee80f631cf345664111f4640826662740a1425b833ce4638e14a4e7e0f546001600160a01b031633145b80611c1257503330145b611c4e5760405162461bcd60e51b815260206004820152600d60248201526c3737903832b936b4b9b9b4b7b760991b6044820152606401610b6a565b610b7c81612e20565b60008281527ff8a710ee80f631cf345664111f4640826662740a1425b833ce4638e14a4e7ea960205260408120610e859083612f15565b60008181527ff8a710ee80f631cf345664111f4640826662740a1425b833ce4638e14a4e7f43602090815260409182902080548351818402810184019094528084526060937ff8a710ee80f631cf345664111f4640826662740a1425b833ce4638e14a4e7f429390929190830182828015610f265760200282019190600052602060002090815481526020019060010190808311610f12575050505050915050919050565b60007ff8a710ee80f631cf345664111f4640826662740a1425b833ce4638e14a4e7edc611d5f81612f21565b91505090565b611d6e336110a5565b80611d7857503330145b611db15760405162461bcd60e51b815260206004820152600a60248201526937b7363c9037bbb732b960b11b6044820152606401610b6a565b848114611e005760405162461bcd60e51b815260206004820152601360248201527f77726f6e67206172726179206c656e67746873000000000000000000000000006044820152606401610b6a565b60005b8581101561105357611e20878783818110610fb557610fb5614b14565b80611e2a81614b40565b915050611e03565b611e3b336110a5565b80611e4557503330145b611e7e5760405162461bcd60e51b815260206004820152600a60248201526937b7363c9037bbb732b960b11b6044820152606401610b6a565b6040516001600160a01b0383169082156108fc029083906000818181858888f193505050501580156110a0573d6000803e3d6000fd5b60408051606086901b6bffffffffffffffffffffffff191660208083019190915260348083018a905283518084039091018152605490920190925280519101206000907ff8a710ee80f631cf345664111f4640826662740a1425b833ce4638e14a4e7fa890303314611fd1576040516bffffffffffffffffffffffff193360601b166020820152611f5f90603401604051602081830303815290604052805190602001206003612407565b611fd15760405162461bcd60e51b815260206004820152602560248201527f53656e64657220646f6573206e6f74206861766520636c61696d207369676e6560448201527f72206b65790000000000000000000000000000000000000000000000000000006064820152608401610b6a565b6000818152602083905260409020600201546001600160a01b038881169116146120195760008981526001808401602090815260408320805492830181558352909120018190555b60008181526020839052604090208981556001810189905560028101805473ffffffffffffffffffffffffffffffffffffffff19166001600160a01b038a161790556003016120688782614ca1565b5060008181526020839052604090206004016120848682614ca1565b5060008181526020839052604090206005016120a08582614ca1565b50866001600160a01b031689827f46149b18aa084502c3f12bc75e19eda8bda8d102b82cce8474677a6d0d5f43c58b8a8a8a6040516120e29493929190614d61565b60405180910390a498975050505050505050565b60006121297ff8a710ee80f631cf345664111f4640826662740a1425b833ce4638e14a4e7e0f546001600160a01b031690565b6040517f70a082310000000000000000000000000000000000000000000000000000000081523060048201526001600160a01b0391909116906370a0823190602401602060405180830381865afa158015612188573d6000803e3d6000fd5b505050506040513d601f19601f820116820180604052508101906121ac9190614da0565b905090565b60008181527ff8a710ee80f631cf345664111f4640826662740a1425b833ce4638e14a4e7fa860208190526040822080546001820154600283015460038401805487968796606096879687969395919490936001600160a01b0316926004810191600590910190839061222390614b5a565b80601f016020809104026020016040519081016040528092919081815260200182805461224f90614b5a565b801561229c5780601f106122715761010080835404028352916020019161229c565b820191906000526020600020905b81548152906001019060200180831161227f57829003601f168201915b505050505092508180546122af90614b5a565b80601f01602080910402602001604051908101604052809291908181526020018280546122db90614b5a565b80156123285780601f106122fd57610100808354040283529160200191612328565b820191906000526020600020905b81548152906001019060200180831161230b57829003601f168201915b5050505050915080805461233b90614b5a565b80601f016020809104026020016040519081016040528092919081815260200182805461236790614b5a565b80156123b45780601f10612389576101008083540402835291602001916123b4565b820191906000526020600020905b81548152906001019060200180831161239757829003601f168201915b505050505090509650965096509650965096505091939550919395565b60008181527ff8a710ee80f631cf345664111f4640826662740a1425b833ce4638e14a4e7ea960205260408120610ae590612fd4565b60008281527ff8a710ee80f631cf345664111f4640826662740a1425b833ce4638e14a4e7f42602081905260408220600201548290810361244d57600092505050610ae5565b50600093845260205250604090912054111590565b60008281527ff8a710ee80f631cf345664111f4640826662740a1425b833ce4638e14a4e7ea8602052604090206001015461249c81612d24565b6110a08383612d6f565b7ff8a710ee80f631cf345664111f4640826662740a1425b833ce4638e14a4e7e428054640100000000900467ffffffffffffffff16158015906124fd575080544264010000000090910467ffffffffffffffff1610155b61256f5760405162461bcd60e51b815260206004820152603260248201527f4c6f67696355706772616465436f6e74726f6c3a20757067726164652064656c60448201527f617920686173206e6f7420656c617073656400000000000000000000000000006064820152608401610b6a565b80546c0100000000000000000000000090046001600160a01b0316803b6125fe5760405162461bcd60e51b815260206004820152603960248201527f4c6f67696355706772616465436f6e74726f6c3a206e657720696d706c656d6560448201527f6e746174696f6e206973206e6f74206120636f6e7472616374000000000000006064820152608401610b6a565b7f360894a13ba1a3210667c828492db98dca3e2076cc3735a920a3ca505d382bbc8190556040516001600160a01b03821681527fbc7cd75a20ee27fd9adebab32041f755214dbc6bffa90cc0225b39da2e5c2d3b9060200160405180910390a150805463ffffffff169055565b612673614162565b604080516080810182527ff8a710ee80f631cf345664111f4640826662740a1425b833ce4638e14a4e7e42805463ffffffff81168352640100000000810467ffffffffffffffff1660208401526c0100000000000000000000000090046001600160a01b03168284015282516106408101938490526000936060840191907ff8a710ee80f631cf345664111f4640826662740a1425b833ce4638e14a4e7e439060329082845b81548152602001906001019080831161271957505050919092525091949350505050565b612746336110a5565b8061277a57507ff8a710ee80f631cf345664111f4640826662740a1425b833ce4638e14a4e7e0f546001600160a01b031633145b8061278457503330145b6127c05760405162461bcd60e51b815260206004820152600d60248201526c3737903832b936b4b9b9b4b7b760991b6044820152606401610b6a565b610b7c81612fde565b7ff8a710ee80f631cf345664111f4640826662740a1425b833ce4638e14a4e7e0e90565b60006001600160e01b031982167f4e2312e000000000000000000000000000000000000000000000000000000000148061285057506001600160e01b031982167f150b7a0200000000000000000000000000000000000000000000000000000000145b8061288457506001600160e01b031982167f01ffc9a700000000000000000000000000000000000000000000000000000000145b80610ae55750610ae5826130de565b7ff8a710ee80f631cf345664111f4640826662740a1425b833ce4638e14a4e7e4280546bffffffffffffffffffffffff166c010000000000000000000000006001600160a01b038416908102919091178255156129a8576001600160a01b0382163b6129675760405162461bcd60e51b815260206004820152603960248201527f4c6f67696355706772616465436f6e74726f6c3a206e657720696d706c656d6560448201527f6e746174696f6e206973206e6f74206120636f6e7472616374000000000000006064820152608401610b6a565b80546129799063ffffffff1642614db9565b815467ffffffffffffffff91909116640100000000026bffffffffffffffff00000000199091161781556129bc565b80546bffffffffffffffff00000000191681555b8054604080516001600160a01b038516815264010000000090920467ffffffffffffffff1660208301527f86f802705c9275985a1683685b0891dacff0b59f9e34e0545e3bb2285a38fa0891015b60405180910390a15050565b600080846001600160a01b03168484604051612a329190614dcc565b60006040518083038185875af1925050503d8060008114612a6f576040519150601f19603f3d011682016040523d82523d6000602084013e612a74565b606091505b509150915081612a8657805160208201fd5b5050505050565b7ff8a710ee80f631cf345664111f4640826662740a1425b833ce4638e14a4e7e0f546001600160a01b03163314612b065760405162461bcd60e51b815260206004820152601c60248201527f6163636f756e743a206e6f742066726f6d20456e747279506f696e74000000006044820152606401610b6a565b565b600080612b148561311c565b90506000816040015167ffffffffffffffff16600003612b35575083612b93565b848260400151604051602001612b7a92919091825260c01b7fffffffffffffffff00000000000000000000000000000000000000000000000016602082015260280190565b6040516020818303038152906040528051906020012090505b600082516001811115612ba857612ba8614de8565b14612bbd57612bb8828783613191565b612bc7565b612bc7828261324f565b506040015167ffffffffffffffff16949350505050565b60208101357ff8a710ee80f631cf345664111f4640826662740a1425b833ce4638e14a4e7e0e6001018054600160a01b90046bffffffffffffffffffffffff16906014612c2a83614dfe565b91906101000a8154816bffffffffffffffffffffffff02191690836bffffffffffffffffffffffff1602179055506bffffffffffffffffffffffff1614610b7c5760405162461bcd60e51b815260206004820152601560248201527f77616c6c65743a20696e76616c6964206e6f6e636500000000000000000000006044820152606401610b6a565b8015610b7c57604051600090339060001990849084818181858888f193505050503d8060008114612a86576040519150601f19603f3d011682016040523d82523d6000602084013e612a86565b6000806000612d0f858561335d565b91509150612d1c816133a2565b509392505050565b610b7c8133613507565b612d38828261359b565b60008281527ff8a710ee80f631cf345664111f4640826662740a1425b833ce4638e14a4e7ea9602052604090206110a0908261365e565b612d798282613673565b60008281527ff8a710ee80f631cf345664111f4640826662740a1425b833ce4638e14a4e7ea9602052604090206110a09082613734565b8154604080516001600160a01b03808516825290921660208301527f3478c98de530db0901935d11918d1c34eae62f455794ec4ef7504851726cba57910160405180910390a1815473ffffffffffffffffffffffffffffffffffffffff19166001600160a01b0391909116179055565b7ff8a710ee80f631cf345664111f4640826662740a1425b833ce4638e14a4e7edc612e4a81612f21565b5060018101805473ffffffffffffffffffffffffffffffffffffffff19166001600160a01b0384161790819055612e8e90600160e01b900463ffffffff1642614db9565b6001820180547fffffffff0000000000000000ffffffffffffffffffffffffffffffffffffffff16600160a01b67ffffffffffffffff93841681029190911791829055604080516001600160a01b03871681529190920490921660208301527f15d0e4a0bb95a1445a3ac445375a19ccf433fc115e7bfdf48af8b35f30fa38dc9101612a0a565b6000610e858383613749565b6001810154600090600160a01b900467ffffffffffffffff1615801590612f5e5750600182015442600160a01b90910467ffffffffffffffff1610155b15612fc7576001820180547fffffffff0000000000000000ffffffffffffffffffffffffffffffffffffffff8116909155612fa39083906001600160a01b0316612db0565b506001908101805473ffffffffffffffffffffffffffffffffffffffff1916905590565b506000919050565b919050565b6000610ae5825490565b7ff8a710ee80f631cf345664111f4640826662740a1425b833ce4638e14a4e7edc61300881612f21565b5060018101546001600160a01b0383811691161461308e5760405162461bcd60e51b815260206004820152602560248201527f477561726469616e436f6e74726f6c3a20677561726469616e206e6f7420706560448201527f6e64696e670000000000000000000000000000000000000000000000000000006064820152608401610b6a565b6040516001600160a01b03831681527fce469c831d941f82892051da38b94835ea7ce98bb168168b524c282bf3cb8ed09060200160405180910390a160010180546001600160e01b031916905550565b60006001600160e01b031982167f5a05180f000000000000000000000000000000000000000000000000000000001480610ae55750610ae582613773565b61314660408051608081019091528060008152600060208201819052604082015260609081015290565b610ae5613157610140840184614aaf565b8080601f0160208091040260200160405190810160405280939291908181526020018383808284376000920191909152506137da92505050565b61319a82613876565b6131e65760405162461bcd60e51b815260206004820152601f60248201527f57616c6c65743a20496e76616c696420677561726469616e20616374696f6e006044820152606401610b6a565b6110a08360200151613245836040517f19457468657265756d205369676e6564204d6573736167653a0a3332000000006020820152603c8101829052600090605c01604051602081830303815290604052805190602001209050919050565b85606001516138e0565b61325c82602001516110a5565b6132a85760405162461bcd60e51b815260206004820152601360248201527f5369676e6572206e6f7420616e206f776e6572000000000000000000000000006044820152606401610b6a565b6133118260200151613307836040517f19457468657265756d205369676e6564204d6573736167653a0a3332000000006020820152603c8101829052600090605c01604051602081830303815290604052805190602001209050919050565b8460600151613af5565b61116d5760405162461bcd60e51b815260206004820152601960248201527f57616c6c65743a20496e76616c6964206f776e657220736967000000000000006044820152606401610b6a565b60008082516041036133935760208301516040840151606085015160001a61338787828585613c65565b9450945050505061339b565b506000905060025b9250929050565b60008160048111156133b6576133b6614de8565b036133be5750565b60018160048111156133d2576133d2614de8565b0361341f5760405162461bcd60e51b815260206004820152601860248201527f45434453413a20696e76616c6964207369676e617475726500000000000000006044820152606401610b6a565b600281600481111561343357613433614de8565b036134805760405162461bcd60e51b815260206004820152601f60248201527f45434453413a20696e76616c6964207369676e6174757265206c656e677468006044820152606401610b6a565b600381600481111561349457613494614de8565b03610b7c5760405162461bcd60e51b815260206004820152602260248201527f45434453413a20696e76616c6964207369676e6174757265202773272076616c60448201527f75650000000000000000000000000000000000000000000000000000000000006064820152608401610b6a565b60008281527ff8a710ee80f631cf345664111f4640826662740a1425b833ce4638e14a4e7ea8602090815260408083206001600160a01b038516845290915290205460ff1661116d5761355981613d29565b613564836020613d3b565b604051602001613575929190614e29565b60408051601f198184030181529082905262461bcd60e51b8252610b6a91600401614eaa565b60008281527ff8a710ee80f631cf345664111f4640826662740a1425b833ce4638e14a4e7ea8602090815260408083206001600160a01b038516845290915290205460ff1661116d5760008281527ff8a710ee80f631cf345664111f4640826662740a1425b833ce4638e14a4e7ea8602090815260408083206001600160a01b0385168085529252808320805460ff1916600117905551339285917f2f8788117e7eff1d82e926ec794901d17c78024a50270940304540a733656f0d9190a45050565b6000610e85836001600160a01b038416613f64565b60008281527ff8a710ee80f631cf345664111f4640826662740a1425b833ce4638e14a4e7ea8602090815260408083206001600160a01b038516845290915290205460ff161561116d5760008281527ff8a710ee80f631cf345664111f4640826662740a1425b833ce4638e14a4e7ea8602090815260408083206001600160a01b0385168085529252808320805460ff1916905551339285917ff6391f5c32d9c69d2a47ea670b442974b53935d1edc7fd64eb21e047a839171b9190a45050565b6000610e85836001600160a01b038416613fb3565b600082600001828154811061376057613760614b14565b9060005260206000200154905092915050565b60006001600160e01b031982167f7965db0b000000000000000000000000000000000000000000000000000000001480610ae557507f01ffc9a7000000000000000000000000000000000000000000000000000000006001600160e01b0319831614610ae5565b61380460408051608081019091528060008152600060208201819052604082015260609081015290565b6000806000808580602001905181019061381e9190614f02565b9350935093509350604051806080016040528085600181111561384357613843614de8565b8152602001846001600160a01b031681526020018367ffffffffffffffff16815260200182815250945050505050919050565b60006138856060830183614aaf565b905060000361389657506000919050565b610ae56138a66060840184614aaf565b8080601f0160208091040260200160405190810160405280939291908181526020018383808284376000920191909152506140a692505050565b60006138eb826140e3565b90507ff8a710ee80f631cf345664111f4640826662740a1425b833ce4638e14a4e7edc61391781612f21565b5080546001600160a01b0390811690861681146139765760405162461bcd60e51b815260206004820152601360248201527f7369676e6572206e6f7420677561726469616e000000000000000000000000006044820152606401610b6a565b60208301515115613a7457806001600160a01b03167f00000000000000000000000000000000000000000000000000000000000000006001600160a01b031663570e1a3685602001516040518263ffffffff1660e01b81526004016139db9190614eaa565b6020604051808303816000875af11580156139fa573d6000803e3d6000fd5b505050506040513d601f19601f82011682018060405250810190613a1e9190614f85565b6001600160a01b031614613a745760405162461bcd60e51b815260206004820152601e60248201527f677561726469616e20636f6e7472616374206e6f74206465706c6f79656400006044820152606401610b6a565b613a8381868560000151613af5565b6112f15760405162461bcd60e51b815260206004820152602260248201527f477561726469616e436f6e74726f6c3a20696e76616c6964207369676e61747560448201527f72650000000000000000000000000000000000000000000000000000000000006064820152608401610b6a565b6000806000613b04858561335d565b90925090506000816004811115613b1d57613b1d614de8565b148015613b3b5750856001600160a01b0316826001600160a01b0316145b15613b4b57600192505050610e85565b600080876001600160a01b0316631626ba7e60e01b8888604051602401613b73929190614fa2565b60408051601f198184030181529181526020820180517bffffffffffffffffffffffffffffffffffffffffffffffffffffffff166001600160e01b0319909416939093179092529051613bc69190614dcc565b600060405180830381855afa9150503d8060008114613c01576040519150601f19603f3d011682016040523d82523d6000602084013e613c06565b606091505b5091509150818015613c19575080516020145b8015613c59575080517f1626ba7e0000000000000000000000000000000000000000000000000000000090613c579083016020908101908401614da0565b145b98975050505050505050565b6000807f7fffffffffffffffffffffffffffffff5d576e7357a4501ddfe92f46681b20a0831115613c9c5750600090506003613d20565b6040805160008082526020820180845289905260ff881692820192909252606081018690526080810185905260019060a0016020604051602081039080840390855afa158015613cf0573d6000803e3d6000fd5b5050604051601f1901519150506001600160a01b038116613d1957600060019250925050613d20565b9150600090505b94509492505050565b6060610ae56001600160a01b03831660145b60606000613d4a836002614fbb565b613d55906002614db9565b67ffffffffffffffff811115613d6d57613d6d614466565b6040519080825280601f01601f191660200182016040528015613d97576020820181803683370190505b5090507f300000000000000000000000000000000000000000000000000000000000000081600081518110613dce57613dce614b14565b60200101907effffffffffffffffffffffffffffffffffffffffffffffffffffffffffffff1916908160001a9053507f780000000000000000000000000000000000000000000000000000000000000081600181518110613e3157613e31614b14565b60200101907effffffffffffffffffffffffffffffffffffffffffffffffffffffffffffff1916908160001a9053506000613e6d846002614fbb565b613e78906001614db9565b90505b6001811115613f15577f303132333435363738396162636465660000000000000000000000000000000085600f1660108110613eb957613eb9614b14565b1a60f81b828281518110613ecf57613ecf614b14565b60200101907effffffffffffffffffffffffffffffffffffffffffffffffffffffffffffff1916908160001a90535060049490941c93613f0e81614fd2565b9050613e7b565b508315610e855760405162461bcd60e51b815260206004820181905260248201527f537472696e67733a20686578206c656e67746820696e73756666696369656e746044820152606401610b6a565b6000818152600183016020526040812054613fab57508154600181810184556000848152602080822090930184905584548482528286019093526040902091909155610ae5565b506000610ae5565b6000818152600183016020526040812054801561409c576000613fd7600183614fe9565b8554909150600090613feb90600190614fe9565b905081811461405057600086600001828154811061400b5761400b614b14565b906000526020600020015490508087600001848154811061402e5761402e614b14565b6000918252602080832090910192909255918252600188019052604090208390555b855486908061406157614061614ffc565b600190038181906000526020600020016000905590558560010160008681526020019081526020016000206000905560019350505050610ae5565b6000915050610ae5565b60007f4fb2e45d000000000000000000000000000000000000000000000000000000006140d283615012565b6001600160e01b0319161492915050565b60408051808201909152606080825260208201526000808380602001905181019061410e919061504a565b604080518082019091529182526020820152949350505050565b50805461413490614b5a565b6000825580601f10614144575050565b601f016020900490600052602060002090810190610b7c9190614190565b60408051608081018252600080825260208201819052918101919091526060810161418b6141a9565b905290565b5b808211156141a55760008155600101614191565b5090565b6040518061064001604052806032906020820280368337509192915050565b6001600160a01b0381168114610b7c57600080fd5b60008083601f8401126141ef57600080fd5b50813567ffffffffffffffff81111561420757600080fd5b60208301915083602082850101111561339b57600080fd5b60008060008060008060008060c0898b03121561423b57600080fd5b8835614246816141c8565b97506020890135614256816141c8565b96506040890135614266816141c8565b955060608901359450608089013567ffffffffffffffff8082111561428a57600080fd5b6142968c838d016141dd565b909650945060a08b01359150808211156142af57600080fd5b506142bc8b828c016141dd565b999c989b5096995094979396929594505050565b6000602082840312156142e257600080fd5b81356001600160e01b031981168114610e8557600080fd5b60006020828403121561430c57600080fd5b5035919050565b60006020828403121561432557600080fd5b8135610e85816141c8565b6000806000806060858703121561434657600080fd5b8435614351816141c8565b935060208501359250604085013567ffffffffffffffff81111561437457600080fd5b614380878288016141dd565b95989497509550505050565b600080600080608085870312156143a257600080fd5b843567ffffffffffffffff8111156143b957600080fd5b850161016081880312156143cc57600080fd5b93506020850135925060408501356143e3816141c8565b9396929550929360600135925050565b60008060008060006080868803121561440b57600080fd5b8535614416816141c8565b94506020860135614426816141c8565b935060408601359250606086013567ffffffffffffffff81111561444957600080fd5b614455888289016141dd565b969995985093965092949392505050565b634e487b7160e01b600052604160045260246000fd5b604051601f8201601f1916810167ffffffffffffffff811182821017156144a5576144a5614466565b604052919050565b600067ffffffffffffffff8211156144c7576144c7614466565b50601f01601f191660200190565b60006144e86144e3846144ad565b61447c565b90508281528383830111156144fc57600080fd5b828260208301376000602084830101529392505050565b600082601f83011261452457600080fd5b610e85838335602085016144d5565b6000806040838503121561454657600080fd5b82359150602083013567ffffffffffffffff81111561456457600080fd5b61457085828601614513565b9150509250929050565b60008060006060848603121561458f57600080fd5b505081359360208301359350604090920135919050565b6020808252825182820181905260009190848201906040850190845b818110156145de578351835292840192918401916001016145c2565b50909695505050505050565b60008083601f8401126145fc57600080fd5b50813567ffffffffffffffff81111561461457600080fd5b6020830191508360208260051b850101111561339b57600080fd5b6000806000806000806060878903121561464857600080fd5b863567ffffffffffffffff8082111561466057600080fd5b61466c8a838b016145ea565b9098509650602089013591508082111561468557600080fd5b6146918a838b016145ea565b909650945060408901359150808211156146aa57600080fd5b506146b789828a016145ea565b979a9699509497509295939492505050565b600080604083850312156146dc57600080fd5b8235915060208301356146ee816141c8565b809150509250929050565b6000806040838503121561470c57600080fd5b8235614717816141c8565b946020939093013593505050565b803563ffffffff81168114612fcf57600080fd5b600080600080600060a0868803121561475157600080fd5b853561475c816141c8565b9450602086013561476c816141c8565b935061477a60408701614725565b925061478860608701614725565b91506080860135614798816141c8565b809150509295509295909350565b600080604083850312156147b957600080fd5b50508035926020909101359150565b60008060008060008060c087890312156147e157600080fd5b863595506020870135945060408701356147fa816141c8565b9350606087013567ffffffffffffffff8082111561481757600080fd5b6148238a838b01614513565b9450608089013591508082111561483957600080fd5b6148458a838b01614513565b935060a089013591508082111561485b57600080fd5b508701601f8101891361486d57600080fd5b61487c898235602084016144d5565b9150509295509295509295565b60008060008060008060008060a0898b0312156148a557600080fd5b88356148b0816141c8565b975060208901356148c0816141c8565b9650604089013567ffffffffffffffff808211156148dd57600080fd5b6148e98c838d016145ea565b909850965060608b013591508082111561490257600080fd5b61490e8c838d016145ea565b909650945060808b01359150808211156142af57600080fd5b60005b8381101561494257818101518382015260200161492a565b50506000910152565b60008151808452614963816020860160208601614927565b601f01601f19169290920160200192915050565b8681528560208201526001600160a01b038516604082015260c0606082015260006149a560c083018661494b565b82810360808401526149b7818661494b565b905082810360a08401526149cb818561494b565b9998505050505050505050565b60008060008060008060a087890312156149f157600080fd5b86356149fc816141c8565b95506020870135614a0c816141c8565b94506040870135935060608701359250608087013567ffffffffffffffff811115614a3657600080fd5b6146b789828a016141dd565b60006106a08201905063ffffffff8351168252602067ffffffffffffffff8185015116818401526001600160a01b03604085015116604084015260608401516060840160005b6032811015614aa557825182529183019190830190600101614a88565b5050505092915050565b60008083357fffffffffffffffffffffffffffffffffffffffffffffffffffffffffffffffe1843603018112614ae457600080fd5b83018035915067ffffffffffffffff821115614aff57600080fd5b60200191503681900382131561339b57600080fd5b634e487b7160e01b600052603260045260246000fd5b634e487b7160e01b600052601160045260246000fd5b60006000198203614b5357614b53614b2a565b5060010190565b600181811c90821680614b6e57607f821691505b602082108103614b8e57634e487b7160e01b600052602260045260246000fd5b50919050565b60008154614ba181614b5a565b808552602060018381168015614bbe5760018114614bd857614c06565b60ff198516838901528284151560051b8901019550614c06565b866000528260002060005b85811015614bfe5781548a8201860152908301908401614be3565b890184019650505b505050505092915050565b848152608060208201526000614c2a6080830186614b94565b8281036040840152614c3c8186614b94565b90508281036060840152614c508185614b94565b979650505050505050565b601f8211156110a057600081815260208120601f850160051c81016020861015614c825750805b601f850160051c820191505b818110156112f157828155600101614c8e565b815167ffffffffffffffff811115614cbb57614cbb614466565b614ccf81614cc98454614b5a565b84614c5b565b602080601f831160018114614d045760008415614cec5750858301515b600019600386901b1c1916600185901b1785556112f1565b600085815260208120601f198616915b82811015614d3357888601518255948401946001909101908401614d14565b5085821015614d515787850151600019600388901b60f8161c191681555b5050505050600190811b01905550565b848152608060208201526000614d7a608083018661494b565b8281036040840152614d8c818661494b565b90508281036060840152614c50818561494b565b600060208284031215614db257600080fd5b5051919050565b80820180821115610ae557610ae5614b2a565b60008251614dde818460208701614927565b9190910192915050565b634e487b7160e01b600052602160045260246000fd5b60006bffffffffffffffffffffffff808316818103614e1f57614e1f614b2a565b6001019392505050565b7f416363657373436f6e74726f6c3a206163636f756e7420000000000000000000815260008351614e61816017850160208801614927565b7f206973206d697373696e6720726f6c65200000000000000000000000000000006017918401918201528351614e9e816028840160208801614927565b01602801949350505050565b602081526000610e85602083018461494b565b600082601f830112614ece57600080fd5b8151614edc6144e3826144ad565b818152846020838601011115614ef157600080fd5b610c51826020830160208701614927565b60008060008060808587031215614f1857600080fd5b845160028110614f2757600080fd5b6020860151909450614f38816141c8565b604086015190935067ffffffffffffffff8082168214614f5757600080fd5b606087015191935080821115614f6c57600080fd5b50614f7987828801614ebd565b91505092959194509250565b600060208284031215614f9757600080fd5b8151610e85816141c8565b828152604060208201526000610c51604083018461494b565b8082028115828204841417610ae557610ae5614b2a565b600081614fe157614fe1614b2a565b506000190190565b81810381811115610ae557610ae5614b2a565b634e487b7160e01b600052603160045260246000fd5b6000815160208301516001600160e01b0319808216935060048310156150425780818460040360031b1b83161693505b505050919050565b6000806040838503121561505d57600080fd5b825167ffffffffffffffff8082111561507557600080fd5b61508186838701614ebd565b9350602085015191508082111561509757600080fd5b5061457085828601614ebd56fea26469706673582212209d580db850a6a7d3a715ecc1ab814797ccacab9d84e46dd5ceba7603569ffd8264736f6c63430008110033608060405234801561001057600080fd5b50610213806100206000396000f3fe608060405234801561001057600080fd5b506004361061002b5760003560e01c8063570e1a3614610030575b600080fd5b61004361003e3660046100f9565b61006c565b60405173ffffffffffffffffffffffffffffffffffffffff909116815260200160405180910390f35b60008061007c601482858761016b565b61008591610195565b60601c90506000610099846014818861016b565b8080601f016020809104026020016040519081016040528093929190818152602001838380828437600092018290525084519495509360209350849250905082850182875af190506000519350806100f057600093505b50505092915050565b6000806020838503121561010c57600080fd5b823567ffffffffffffffff8082111561012457600080fd5b818501915085601f83011261013857600080fd5b81358181111561014757600080fd5b86602082850101111561015957600080fd5b60209290920196919550909350505050565b6000808585111561017b57600080fd5b8386111561018857600080fd5b5050820193919092039150565b7fffffffffffffffffffffffffffffffffffffffff00000000000000000000000081358181169160148510156101d55780818660140360031b1b83161692505b50509291505056fea264697066735822122070d34028485204f761d984cd0627163c0427b833403cf36ea4f4e3dd40e6391364736f6c63430008110033",
  "linkReferences": {},
  "deployedLinkReferences": {}
}