{
  "_format": "hh-sol-artifact-1",
  "contractName": "MockOracle",
  "sourceName": "contracts/dev/MockOracle.sol",
  "abi": [
    {
      "inputs": [],
      "stateMutability": "nonpayable",
      "type": "constructor"
    },
    {
      "inputs": [],
      "name": "decimals",
      "outputs": [
        {
          "internalType": "uint8",
          "name": "",
          "type": "uint8"
        }
      ],
      "stateMutability": "view",
      "type": "function"
    },
    {
      "inputs": [],
      "name": "latestRoundData",
      "outputs": [
        {
          "internalType": "uint80",
          "name": "roundId",
          "type": "uint80"
        },
        {
          "internalType": "int256",
          "name": "answer",
          "type": "int256"
        },
        {
          "internalType": "uint256",
          "name": "startedAt",
          "type": "uint256"
        },
        {
          "internalType": "uint256",
          "name": "updatedAt",
          "type": "uint256"
        },
        {
          "internalType": "uint80",
          "name": "answeredInRound",
          "type": "uint80"
        }
      ],
      "stateMutability": "view",
      "type": "function"
    }
  ],
  "bytecode": "0x6080604052348015600f57600080fd5b5060c28061001e6000396000f3fe6080604052348015600f57600080fd5b506004361060325760003560e01c8063313ce567146037578063feaf968c14604b575b600080fd5b604051600681526020015b60405180910390f35b6040805168050000000000009fea80825264259ca85ef060208301526363f5ffe19282019290925263640542216060820152608081019190915260a001604256fea264697066735822122018da3e272eab00d6c6b370751f8ba5b865ee8e98fcc8fbcc09843d70beda82c164736f6c63430008110033",
  "linkReferences": {},
  "deployedLinkReferences": {}
}