{
  "_format": "hh-sol-artifact-1",
  "contractName": "TokenPaymaster",
  "sourceName": "contracts/paymaster/TokenPaymaster.sol",
  "abi": [
    {
      "inputs": [
        {
          "internalType": "contract IEntryPoint",
          "name": "_entryPoint",
          "type": "address"
        },
        {
          "internalType": "address",
          "name": "_owner",
          "type": "address"
        },
        {
          "internalType": "address",
          "name": "_walletFactory",
          "type": "address"
        }
      ],
      "stateMutability": "nonpayable",
      "type": "constructor"
    },
    {
      "anonymous": false,
      "inputs": [
        {
          "indexed": true,
          "internalType": "address",
          "name": "previousOwner",
          "type": "address"
        },
        {
          "indexed": true,
          "internalType": "address",
          "name": "newOwner",
          "type": "address"
        }
      ],
      "name": "OwnershipTransferred",
      "type": "event"
    },
    {
      "anonymous": false,
      "inputs": [
        {
          "indexed": false,
          "internalType": "address",
          "name": "token",
          "type": "address"
        }
      ],
      "name": "TokenAdded",
      "type": "event"
    },
    {
      "anonymous": false,
      "inputs": [
        {
          "indexed": false,
          "internalType": "address",
          "name": "token",
          "type": "address"
        }
      ],
      "name": "TokenRemoved",
      "type": "event"
    },
    {
      "inputs": [],
      "name": "_IEntryPoint",
      "outputs": [
        {
          "internalType": "contract IEntryPoint",
          "name": "",
          "type": "address"
        }
      ],
      "stateMutability": "view",
      "type": "function"
    },
    {
      "inputs": [
        {
          "internalType": "uint32",
          "name": "unstakeDelaySec",
          "type": "uint32"
        }
      ],
      "name": "addStake",
      "outputs": [],
      "stateMutability": "payable",
      "type": "function"
    },
    {
      "inputs": [],
      "name": "deposit",
      "outputs": [],
      "stateMutability": "payable",
      "type": "function"
    },
    {
      "inputs": [],
      "name": "entryPoint",
      "outputs": [
        {
          "internalType": "address",
          "name": "",
          "type": "address"
        }
      ],
      "stateMutability": "view",
      "type": "function"
    },
    {
      "inputs": [
        {
          "internalType": "address",
          "name": "_token",
          "type": "address"
        }
      ],
      "name": "exchangePrice",
      "outputs": [
        {
          "internalType": "uint256",
          "name": "price",
          "type": "uint256"
        },
        {
          "internalType": "uint8",
          "name": "decimals",
          "type": "uint8"
        }
      ],
      "stateMutability": "view",
      "type": "function"
    },
    {
      "inputs": [],
      "name": "getDeposit",
      "outputs": [
        {
          "internalType": "uint256",
          "name": "",
          "type": "uint256"
        }
      ],
      "stateMutability": "view",
      "type": "function"
    },
    {
      "inputs": [
        {
          "internalType": "address",
          "name": "_token",
          "type": "address"
        }
      ],
      "name": "isSupportedToken",
      "outputs": [
        {
          "internalType": "bool",
          "name": "",
          "type": "bool"
        }
      ],
      "stateMutability": "view",
      "type": "function"
    },
    {
      "inputs": [],
      "name": "owner",
      "outputs": [
        {
          "internalType": "address",
          "name": "",
          "type": "address"
        }
      ],
      "stateMutability": "view",
      "type": "function"
    },
    {
      "inputs": [
        {
          "internalType": "enum IPaymaster.PostOpMode",
          "name": "mode",
          "type": "uint8"
        },
        {
          "internalType": "bytes",
          "name": "context",
          "type": "bytes"
        },
        {
          "internalType": "uint256",
          "name": "actualGasCost",
          "type": "uint256"
        }
      ],
      "name": "postOp",
      "outputs": [],
      "stateMutability": "nonpayable",
      "type": "function"
    },
    {
      "inputs": [],
      "name": "renounceOwnership",
      "outputs": [],
      "stateMutability": "nonpayable",
      "type": "function"
    },
    {
      "inputs": [
        {
          "internalType": "address[]",
          "name": "_token",
          "type": "address[]"
        },
        {
          "internalType": "address[]",
          "name": "_priceOracle",
          "type": "address[]"
        }
      ],
      "name": "setToken",
      "outputs": [],
      "stateMutability": "nonpayable",
      "type": "function"
    },
    {
      "inputs": [
        {
          "internalType": "bytes4",
          "name": "interfaceId",
          "type": "bytes4"
        }
      ],
      "name": "supportsInterface",
      "outputs": [
        {
          "internalType": "bool",
          "name": "",
          "type": "bool"
        }
      ],
      "stateMutability": "pure",
      "type": "function"
    },
    {
      "inputs": [
        {
          "internalType": "address",
          "name": "newOwner",
          "type": "address"
        }
      ],
      "name": "transferOwnership",
      "outputs": [],
      "stateMutability": "nonpayable",
      "type": "function"
    },
    {
      "inputs": [],
      "name": "unlockStake",
      "outputs": [],
      "stateMutability": "nonpayable",
      "type": "function"
    },
    {
      "inputs": [
        {
          "components": [
            {
              "internalType": "address",
              "name": "sender",
              "type": "address"
            },
            {
              "internalType": "uint256",
              "name": "nonce",
              "type": "uint256"
            },
            {
              "internalType": "bytes",
              "name": "initCode",
              "type": "bytes"
            },
            {
              "internalType": "bytes",
              "name": "callData",
              "type": "bytes"
            },
            {
              "internalType": "uint256",
              "name": "callGasLimit",
              "type": "uint256"
            },
            {
              "internalType": "uint256",
              "name": "verificationGasLimit",
              "type": "uint256"
            },
            {
              "internalType": "uint256",
              "name": "preVerificationGas",
              "type": "uint256"
            },
            {
              "internalType": "uint256",
              "name": "maxFeePerGas",
              "type": "uint256"
            },
            {
              "internalType": "uint256",
              "name": "maxPriorityFeePerGas",
              "type": "uint256"
            },
            {
              "internalType": "bytes",
              "name": "paymasterAndData",
              "type": "bytes"
            },
            {
              "internalType": "bytes",
              "name": "signature",
              "type": "bytes"
            }
          ],
          "internalType": "struct UserOperation",
          "name": "userOp",
          "type": "tuple"
        },
        {
          "internalType": "bytes32",
          "name": "userOpHash",
          "type": "bytes32"
        },
        {
          "internalType": "uint256",
          "name": "maxCost",
          "type": "uint256"
        }
      ],
      "name": "validatePaymasterUserOp",
      "outputs": [
        {
          "internalType": "bytes",
          "name": "context",
          "type": "bytes"
        },
        {
          "internalType": "uint256",
          "name": "deadline",
          "type": "uint256"
        }
      ],
      "stateMutability": "view",
      "type": "function"
    },
    {
      "inputs": [],
      "name": "walletFactory",
      "outputs": [
        {
          "internalType": "address",
          "name": "",
          "type": "address"
        }
      ],
      "stateMutability": "view",
      "type": "function"
    },
    {
      "inputs": [
        {
          "internalType": "address payable",
          "name": "withdrawAddress",
          "type": "address"
        }
      ],
      "name": "withdrawStake",
      "outputs": [],
      "stateMutability": "nonpayable",
      "type": "function"
    },
    {
      "inputs": [
        {
          "internalType": "address payable",
          "name": "withdrawAddress",
          "type": "address"
        },
        {
          "internalType": "uint256",
          "name": "amount",
          "type": "uint256"
        }
      ],
      "name": "withdrawTo",
      "outputs": [],
      "stateMutability": "nonpayable",
      "type": "function"
    }
  ],
  "bytecode": "0x60c0604052614e206002553480156200001757600080fd5b5060405162002226380380620022268339810160408190526200003a9162000198565b62000045336200012f565b6001600160a01b038316620000a15760405162461bcd60e51b815260206004820152601760248201527f696e76616c69642065746e7279706f696e74206164647200000000000000000060448201526064015b60405180910390fd5b6001600160a01b03808416608052821615620000c257620000c2826200012f565b6001600160a01b0381166200011a5760405162461bcd60e51b815260206004820152601760248201527f696e76616c69642065746e7279706f696e742061646472000000000000000000604482015260640162000098565b6001600160a01b031660a05250620001ec9050565b600080546001600160a01b038381166001600160a01b0319831681178455604051919092169283917f8be0079c531659141344cd1fd0a4f28419497f9722a3daafe3b4186f6b6457e09190a35050565b6001600160a01b03811681146200019557600080fd5b50565b600080600060608486031215620001ae57600080fd5b8351620001bb816200017f565b6020850151909350620001ce816200017f565b6040850151909250620001e1816200017f565b809150509250925092565b60805160a051611fd5620002516000396000818161038d015261126b0152600081816101cc015281816102ff01528181610441015281816104f1015281816108d90152818161098601528181610a0f01528181610ab50152610c770152611fd56000f3fe6080604052600436106101295760003560e01c8063a9a23409116100a5578063c399ec8811610074578063d0e30db011610059578063d0e30db0146103af578063f2fde38b146103b7578063f465c77e146103d757600080fd5b8063c399ec8814610358578063c5c036991461037b57600080fd5b8063a9a23409146102d0578063b0d691fe146102f0578063bb9fe6bf14610323578063c23a5cea1461033857600080fd5b8063240028e8116100fc57806363f02829116100e157806363f0282914610266578063715018a61461029d5780638da5cb5b146102b257600080fd5b8063240028e814610226578063460a60d01461024657600080fd5b806301ffc9a71461012e5780630396cb60146101a5578063181fb11f146101ba578063205c287814610206575b600080fd5b34801561013a57600080fd5b50610190610149366004611679565b7fffffffff00000000000000000000000000000000000000000000000000000000167ff726913f000000000000000000000000000000000000000000000000000000001490565b60405190151581526020015b60405180910390f35b6101b86101b33660046116bb565b610405565b005b3480156101c657600080fd5b506101ee7f000000000000000000000000000000000000000000000000000000000000000081565b6040516001600160a01b03909116815260200161019c565b34801561021257600080fd5b506101b86102213660046116f6565b6104aa565b34801561023257600080fd5b50610190610241366004611722565b610535565b34801561025257600080fd5b506101b861026136600461178b565b61055b565b34801561027257600080fd5b50610286610281366004611722565b6107e6565b6040805192835260ff90911660208301520161019c565b3480156102a957600080fd5b506101b86108a1565b3480156102be57600080fd5b506000546001600160a01b03166101ee565b3480156102dc57600080fd5b506101b86102eb3660046117f7565b6108b5565b3480156102fc57600080fd5b507f00000000000000000000000000000000000000000000000000000000000000006101ee565b34801561032f57600080fd5b506101b86108cf565b34801561034457600080fd5b506101b8610353366004611722565b610946565b34801561036457600080fd5b5061036d6109de565b60405190815260200161019c565b34801561038757600080fd5b506101ee7f000000000000000000000000000000000000000000000000000000000000000081565b6101b8610a87565b3480156103c357600080fd5b506101b86103d2366004611722565b610b02565b3480156103e357600080fd5b506103f76103f2366004611886565b610b92565b60405161019c9291906118da565b61040d610bb5565b6040517f0396cb6000000000000000000000000000000000000000000000000000000000815263ffffffff821660048201527f00000000000000000000000000000000000000000000000000000000000000006001600160a01b031690630396cb609034906024016000604051808303818588803b15801561048e57600080fd5b505af11580156104a2573d6000803e3d6000fd5b505050505050565b6104b2610bb5565b6040517f205c28780000000000000000000000000000000000000000000000000000000081526001600160a01b038381166004830152602482018390527f0000000000000000000000000000000000000000000000000000000000000000169063205c287890604401600060405180830381600087803b15801561048e57600080fd5b6001600160a01b0380821660009081526001602052604081205490911615155b92915050565b610563610bb5565b8281146105b75760405162461bcd60e51b815260206004820152600f60248201527f6c656e677468206d69736d61746368000000000000000000000000000000000060448201526064015b60405180910390fd5b60005b838110156107df5760008585838181106105d6576105d661192f565b90506020020160208101906105eb9190611722565b905060008484848181106106015761060161192f565b90506020020160208101906106169190611722565b90506001600160a01b03821661066e5760405162461bcd60e51b815260206004820152601c60248201527f746f6b656e2063616e6e6f74206265207a65726f20616464726573730000000060448201526064016105ae565b6001600160a01b03808316600090815260016020526040902054811690821661070d576001600160a01b03811615610708576001600160a01b038316600081815260016020908152604091829020805473ffffffffffffffffffffffffffffffffffffffff1916905590519182527f4c910b69fe65a61f7531b9c5042b2329ca7179c77290aa7e2eb3afa3c8511fd3910160405180910390a15b6107c9565b6001600160a01b03811615610759576040516001600160a01b03821681527f4c910b69fe65a61f7531b9c5042b2329ca7179c77290aa7e2eb3afa3c8511fd39060200160405180910390a15b6001600160a01b03838116600081815260016020908152604091829020805473ffffffffffffffffffffffffffffffffffffffff191694871694909417909355519081527f784c8f4dbf0ffedd6e72c76501c545a70f8b203b30a26ce542bf92ba87c248a4910160405180910390a15b50505080806107d79061195b565b9150506105ba565b5050505050565b6001600160a01b038181166000818152600160205260408082205490517f63f028290000000000000000000000000000000000000000000000000000000081526004810193909352909283929116906363f02829906024016040805180830381865afa15801561085a573d6000803e3d6000fd5b505050506040513d601f19601f8201168201806040525081019061087e919061198b565b909250905060646108908360636119b7565b61089a91906119ce565b9150915091565b6108a9610bb5565b6108b36000610c0f565b565b6108bd610c6c565b6108c984848484610ca1565b50505050565b6108d7610bb5565b7f00000000000000000000000000000000000000000000000000000000000000006001600160a01b031663bb9fe6bf6040518163ffffffff1660e01b8152600401600060405180830381600087803b15801561093257600080fd5b505af11580156108c9573d6000803e3d6000fd5b61094e610bb5565b6040517fc23a5cea0000000000000000000000000000000000000000000000000000000081526001600160a01b0382811660048301527f0000000000000000000000000000000000000000000000000000000000000000169063c23a5cea90602401600060405180830381600087803b1580156109ca57600080fd5b505af11580156107df573d6000803e3d6000fd5b6040517f70a082310000000000000000000000000000000000000000000000000000000081523060048201526000907f00000000000000000000000000000000000000000000000000000000000000006001600160a01b0316906370a0823190602401602060405180830381865afa158015610a5e573d6000803e3d6000fd5b505050506040513d601f19601f82011682018060405250810190610a8291906119f0565b905090565b6040517fb760faf90000000000000000000000000000000000000000000000000000000081523060048201527f00000000000000000000000000000000000000000000000000000000000000006001600160a01b03169063b760faf99034906024016000604051808303818588803b1580156109ca57600080fd5b610b0a610bb5565b6001600160a01b038116610b865760405162461bcd60e51b815260206004820152602660248201527f4f776e61626c653a206e6577206f776e657220697320746865207a65726f206160448201527f646472657373000000000000000000000000000000000000000000000000000060648201526084016105ae565b610b8f81610c0f565b50565b60606000610b9e610c6c565b610ba9858585610d88565b91509150935093915050565b6000546001600160a01b031633146108b35760405162461bcd60e51b815260206004820181905260248201527f4f776e61626c653a2063616c6c6572206973206e6f7420746865206f776e657260448201526064016105ae565b600080546001600160a01b0383811673ffffffffffffffffffffffffffffffffffffffff19831681178455604051919092169283917f8be0079c531659141344cd1fd0a4f28419497f9722a3daafe3b4186f6b6457e09190a35050565b336001600160a01b037f000000000000000000000000000000000000000000000000000000000000000016146108b357600080fd5b6000808080610cb286880188611a09565b93509350935093506000670de0b6b3a7640000828488610cd29190611a4f565b610cdc91906119b7565b610ce691906119ce565b6040517f23b872dd0000000000000000000000000000000000000000000000000000000081526001600160a01b03878116600483015230602483015260448201839052919250908516906323b872dd906064016020604051808303816000875af1158015610d58573d6000803e3d6000fd5b505050506040513d601f19601f82011682018060405250810190610d7c9190611a62565b50505050505050505050565b6060600061afc88560a0013511610e075760405162461bcd60e51b815260206004820152602160248201527f5061796d61737465723a2067617320746f6f206c6f7720666f7220706f73744f60448201527f700000000000000000000000000000000000000000000000000000000000000060648201526084016105ae565b8435600080610e1a610120890189611a84565b610e28916014908290611ae9565b810190610e3591906116f6565b6040517f63f028290000000000000000000000000000000000000000000000000000000081526001600160a01b038316600482015291935091508290600090819030906363f02829906024016040805180830381865afa158015610e9d573d6000803e3d6000fd5b505050506040513d601f19601f82011682018060405250810190610ec1919061198b565b915091506000856001600160a01b031663313ce5676040518163ffffffff1660e01b8152600401602060405180830381865afa158015610f05573d6000803e3d6000fd5b505050506040513d601f19601f82011682018060405250810190610f299190611b13565b90506000610f3883600a611c12565b610f4383600a611c12565b610f4d90866119b7565b610f5791906119ce565b90506000600254610f678f611215565b610f7191906119b7565b90506000670de0b6b3a764000083838f610f8b9190611a4f565b610f9591906119b7565b610f9f91906119ce565b905087811115610ff15760405162461bcd60e51b815260206004820152601a60248201527f5061796d61737465723a206d6178436f737420746f6f206c6f7700000000000060448201526064016105ae565b8e80604001906110019190611a84565b159050611018576110138f8a83611244565b6110f2565b6040517fdd62ed3e0000000000000000000000000000000000000000000000000000000081526001600160a01b038b8116600483015230602483015282919089169063dd62ed3e90604401602060405180830381865afa158015611080573d6000803e3d6000fd5b505050506040513d601f19601f820116820180604052508101906110a491906119f0565b10156110f25760405162461bcd60e51b815260206004820152601f60248201527f5061796d61737465723a206e6f7420656e6f75676820616c6c6f77616e63650060448201526064016105ae565b6040517f70a082310000000000000000000000000000000000000000000000000000000081526001600160a01b038b811660048301528291908916906370a0823190602401602060405180830381865afa158015611154573d6000803e3d6000fd5b505050506040513d601f19601f8201168201806040525081019061117891906119f0565b10156111c65760405162461bcd60e51b815260206004820152601d60248201527f5061796d61737465723a206e6f7420656e6f7567682062616c616e636500000060448201526064016105ae565b50604080516001600160a01b039a8b16602082015298909916888a015260608801526080808801919091528751808803909101815260a090960190965250929960009950975050505050505050565b600060e0820135610100830135808203611230575092915050565b61123c824883016115b4565b949350505050565b60006112536040850185611a84565b61125c91611c21565b60601c90506001600160a01b037f00000000000000000000000000000000000000000000000000000000000000001681146112d95760405162461bcd60e51b815260206004820152601660248201527f756e6b6e6f776e2077616c6c657420666163746f72790000000000000000000060448201526064016105ae565b7f2763604f000000000000000000000000000000000000000000000000000000006113076060860186611a84565b61131091611c69565b7fffffffff00000000000000000000000000000000000000000000000000000000161461137f5760405162461bcd60e51b815260206004820152601060248201527f696e76616c69642063616c6c446174610000000000000000000000000000000060448201526064016105ae565b600080806113906060880188611a84565b61139e916004908290611ae9565b8101906113ab9190611e69565b925092509250815183511480156113c3575080518351145b61140f5760405162461bcd60e51b815260206004820152601060248201527f696e76616c69642063616c6c446174610000000000000000000000000000000060448201526064016105ae565b60005b83518110156115aa57600084828151811061142f5761142f61192f565b6020026020010151905061145d816001600160a01b0390811660009081526001602052604090205416151590565b6114a95760405162461bcd60e51b815260206004820152601160248201527f756e737570706f7274656420746f6b656e00000000000000000000000000000060448201526064016105ae565b876001600160a01b0316816001600160a01b031603611597576000806114e78585815181106114da576114da61192f565b60200260200101516115cc565b90925090506001600160a01b03821630146115445760405162461bcd60e51b815260206004820152600f60248201527f696e76616c6964207370656e646572000000000000000000000000000000000060448201526064016105ae565b888110156115945760405162461bcd60e51b815260206004820152601260248201527f6e6f7420656e6f75676820617070726f7665000000000000000000000000000060448201526064016105ae565b50505b50806115a28161195b565b915050611412565b5050505050505050565b60008183106115c357816115c5565b825b9392505050565b6000807f095ea7b3000000000000000000000000000000000000000000000000000000006115f984611f4f565b7fffffffff0000000000000000000000000000000000000000000000000000000016146116685760405162461bcd60e51b815260206004820152601460248201527f696e76616c696420617070726f76652066756e6300000000000000000000000060448201526064016105ae565b505060248101516044909101519091565b60006020828403121561168b57600080fd5b81357fffffffff00000000000000000000000000000000000000000000000000000000811681146115c557600080fd5b6000602082840312156116cd57600080fd5b813563ffffffff811681146115c557600080fd5b6001600160a01b0381168114610b8f57600080fd5b6000806040838503121561170957600080fd5b8235611714816116e1565b946020939093013593505050565b60006020828403121561173457600080fd5b81356115c5816116e1565b60008083601f84011261175157600080fd5b50813567ffffffffffffffff81111561176957600080fd5b6020830191508360208260051b850101111561178457600080fd5b9250929050565b600080600080604085870312156117a157600080fd5b843567ffffffffffffffff808211156117b957600080fd5b6117c58883890161173f565b909650945060208701359150808211156117de57600080fd5b506117eb8782880161173f565b95989497509550505050565b6000806000806060858703121561180d57600080fd5b84356003811061181c57600080fd5b9350602085013567ffffffffffffffff8082111561183957600080fd5b818701915087601f83011261184d57600080fd5b81358181111561185c57600080fd5b88602082850101111561186e57600080fd5b95986020929092019750949560400135945092505050565b60008060006060848603121561189b57600080fd5b833567ffffffffffffffff8111156118b257600080fd5b840161016081870312156118c557600080fd5b95602085013595506040909401359392505050565b604081526000835180604084015260005b8181101561190857602081870181015160608684010152016118eb565b506000606082850101526060601f19601f8301168401019150508260208301529392505050565b634e487b7160e01b600052603260045260246000fd5b634e487b7160e01b600052601160045260246000fd5b6000600019820361196e5761196e611945565b5060010190565b805160ff8116811461198657600080fd5b919050565b6000806040838503121561199e57600080fd5b825191506119ae60208401611975565b90509250929050565b808202811582820484141761055557610555611945565b6000826119eb57634e487b7160e01b600052601260045260246000fd5b500490565b600060208284031215611a0257600080fd5b5051919050565b60008060008060808587031215611a1f57600080fd5b8435611a2a816116e1565b93506020850135611a3a816116e1565b93969395505050506040820135916060013590565b8082018082111561055557610555611945565b600060208284031215611a7457600080fd5b815180151581146115c557600080fd5b60008083357fffffffffffffffffffffffffffffffffffffffffffffffffffffffffffffffe1843603018112611ab957600080fd5b83018035915067ffffffffffffffff821115611ad457600080fd5b60200191503681900382131561178457600080fd5b60008085851115611af957600080fd5b83861115611b0657600080fd5b5050820193919092039150565b600060208284031215611b2557600080fd5b6115c582611975565b600181815b80851115611b69578160001904821115611b4f57611b4f611945565b80851615611b5c57918102915b93841c9390800290611b33565b509250929050565b600082611b8057506001610555565b81611b8d57506000610555565b8160018114611ba35760028114611bad57611bc9565b6001915050610555565b60ff841115611bbe57611bbe611945565b50506001821b610555565b5060208310610133831016604e8410600b8410161715611bec575081810a610555565b611bf68383611b2e565b8060001904821115611c0a57611c0a611945565b029392505050565b60006115c560ff841683611b71565b7fffffffffffffffffffffffffffffffffffffffff0000000000000000000000008135818116916014851015611c615780818660140360031b1b83161692505b505092915050565b7fffffffff000000000000000000000000000000000000000000000000000000008135818116916004851015611c615760049490940360031b84901b1690921692915050565b634e487b7160e01b600052604160045260246000fd5b604051601f8201601f1916810167ffffffffffffffff81118282101715611cee57611cee611caf565b604052919050565b600067ffffffffffffffff821115611d1057611d10611caf565b5060051b60200190565b600082601f830112611d2b57600080fd5b81356020611d40611d3b83611cf6565b611cc5565b82815260059290921b84018101918181019086841115611d5f57600080fd5b8286015b84811015611d7a5780358352918301918301611d63565b509695505050505050565b6000601f8381840112611d9757600080fd5b82356020611da7611d3b83611cf6565b82815260059290921b85018101918181019087841115611dc657600080fd5b8287015b84811015611e5d57803567ffffffffffffffff80821115611deb5760008081fd5b818a0191508a603f830112611e005760008081fd5b85820135604082821115611e1657611e16611caf565b611e2788601f198c85011601611cc5565b92508183528c81838601011115611e3e5760008081fd5b8181850189850137506000908201870152845250918301918301611dca565b50979650505050505050565b600080600060608486031215611e7e57600080fd5b833567ffffffffffffffff80821115611e9657600080fd5b818601915086601f830112611eaa57600080fd5b81356020611eba611d3b83611cf6565b82815260059290921b8401810191818101908a841115611ed957600080fd5b948201945b83861015611f00578535611ef1816116e1565b82529482019490820190611ede565b97505087013592505080821115611f1657600080fd5b611f2287838801611d1a565b93506040860135915080821115611f3857600080fd5b50611f4586828701611d85565b9150509250925092565b6000815160208301517fffffffff0000000000000000000000000000000000000000000000000000000080821693506004831015611f975780818460040360031b1b83161693505b50505091905056fea2646970667358221220ae0a178428ca03b9af11a287d3978bab22d92b9352739daa943972f2f058943464736f6c63430008110033",
  "linkReferences": {},
  "deployedLinkReferences": {}
}