{
  "_format": "hh-sol-artifact-1",
  "contractName": "ClaimHolder",
  "sourceName": "contracts/ClaimHolder.sol",
  "abi": [
    {
      "anonymous": false,
      "inputs": [
        {
          "indexed": true,
          "internalType": "uint256",
          "name": "executionId",
          "type": "uint256"
        },
        {
          "indexed": false,
          "internalType": "bool",
          "name": "approved",
          "type": "bool"
        }
      ],
      "name": "Approved",
      "type": "event"
    },
    {
      "anonymous": false,
      "inputs": [
        {
          "indexed": true,
          "internalType": "bytes32",
          "name": "claimId",
          "type": "bytes32"
        },
        {
          "indexed": true,
          "internalType": "uint256",
          "name": "claimType",
          "type": "uint256"
        },
        {
          "indexed": false,
          "internalType": "uint256",
          "name": "scheme",
          "type": "uint256"
        },
        {
          "indexed": true,
          "internalType": "address",
          "name": "issuer",
          "type": "address"
        },
        {
          "indexed": false,
          "internalType": "bytes",
          "name": "signature",
          "type": "bytes"
        },
        {
          "indexed": false,
          "internalType": "bytes",
          "name": "data",
          "type": "bytes"
        },
        {
          "indexed": false,
          "internalType": "string",
          "name": "uri",
          "type": "string"
        }
      ],
      "name": "ClaimAdded",
      "type": "event"
    },
    {
      "anonymous": false,
      "inputs": [
        {
          "indexed": true,
          "internalType": "bytes32",
          "name": "claimId",
          "type": "bytes32"
        },
        {
          "indexed": true,
          "internalType": "uint256",
          "name": "claimType",
          "type": "uint256"
        },
        {
          "indexed": false,
          "internalType": "uint256",
          "name": "scheme",
          "type": "uint256"
        },
        {
          "indexed": true,
          "internalType": "address",
          "name": "issuer",
          "type": "address"
        },
        {
          "indexed": false,
          "internalType": "bytes",
          "name": "signature",
          "type": "bytes"
        },
        {
          "indexed": false,
          "internalType": "bytes",
          "name": "data",
          "type": "bytes"
        },
        {
          "indexed": false,
          "internalType": "string",
          "name": "uri",
          "type": "string"
        }
      ],
      "name": "ClaimChanged",
      "type": "event"
    },
    {
      "anonymous": false,
      "inputs": [
        {
          "indexed": true,
          "internalType": "bytes32",
          "name": "claimId",
          "type": "bytes32"
        },
        {
          "indexed": true,
          "internalType": "uint256",
          "name": "claimType",
          "type": "uint256"
        },
        {
          "indexed": false,
          "internalType": "uint256",
          "name": "scheme",
          "type": "uint256"
        },
        {
          "indexed": true,
          "internalType": "address",
          "name": "issuer",
          "type": "address"
        },
        {
          "indexed": false,
          "internalType": "bytes",
          "name": "signature",
          "type": "bytes"
        },
        {
          "indexed": false,
          "internalType": "bytes",
          "name": "data",
          "type": "bytes"
        },
        {
          "indexed": false,
          "internalType": "string",
          "name": "uri",
          "type": "string"
        }
      ],
      "name": "ClaimRemoved",
      "type": "event"
    },
    {
      "anonymous": false,
      "inputs": [
        {
          "indexed": true,
          "internalType": "uint256",
          "name": "claimRequestId",
          "type": "uint256"
        },
        {
          "indexed": true,
          "internalType": "uint256",
          "name": "claimType",
          "type": "uint256"
        },
        {
          "indexed": false,
          "internalType": "uint256",
          "name": "scheme",
          "type": "uint256"
        },
        {
          "indexed": true,
          "internalType": "address",
          "name": "issuer",
          "type": "address"
        },
        {
          "indexed": false,
          "internalType": "bytes",
          "name": "signature",
          "type": "bytes"
        },
        {
          "indexed": false,
          "internalType": "bytes",
          "name": "data",
          "type": "bytes"
        },
        {
          "indexed": false,
          "internalType": "string",
          "name": "uri",
          "type": "string"
        }
      ],
      "name": "ClaimRequested",
      "type": "event"
    },
    {
      "anonymous": false,
      "inputs": [
        {
          "indexed": true,
          "internalType": "uint256",
          "name": "executionId",
          "type": "uint256"
        },
        {
          "indexed": true,
          "internalType": "address",
          "name": "to",
          "type": "address"
        },
        {
          "indexed": true,
          "internalType": "uint256",
          "name": "value",
          "type": "uint256"
        },
        {
          "indexed": false,
          "internalType": "bytes",
          "name": "data",
          "type": "bytes"
        }
      ],
      "name": "Executed",
      "type": "event"
    },
    {
      "anonymous": false,
      "inputs": [
        {
          "indexed": true,
          "internalType": "uint256",
          "name": "executionId",
          "type": "uint256"
        },
        {
          "indexed": true,
          "internalType": "address",
          "name": "to",
          "type": "address"
        },
        {
          "indexed": true,
          "internalType": "uint256",
          "name": "value",
          "type": "uint256"
        },
        {
          "indexed": false,
          "internalType": "bytes",
          "name": "data",
          "type": "bytes"
        }
      ],
      "name": "ExecutionFailed",
      "type": "event"
    },
    {
      "anonymous": false,
      "inputs": [
        {
          "indexed": true,
          "internalType": "uint256",
          "name": "executionId",
          "type": "uint256"
        },
        {
          "indexed": true,
          "internalType": "address",
          "name": "to",
          "type": "address"
        },
        {
          "indexed": true,
          "internalType": "uint256",
          "name": "value",
          "type": "uint256"
        },
        {
          "indexed": false,
          "internalType": "bytes",
          "name": "data",
          "type": "bytes"
        }
      ],
      "name": "ExecutionRequested",
      "type": "event"
    },
    {
      "anonymous": false,
      "inputs": [
        {
          "indexed": true,
          "internalType": "bytes32",
          "name": "key",
          "type": "bytes32"
        },
        {
          "indexed": true,
          "internalType": "uint256",
          "name": "purpose",
          "type": "uint256"
        },
        {
          "indexed": true,
          "internalType": "uint256",
          "name": "keyType",
          "type": "uint256"
        }
      ],
      "name": "KeyAdded",
      "type": "event"
    },
    {
      "anonymous": false,
      "inputs": [
        {
          "indexed": true,
          "internalType": "bytes32",
          "name": "key",
          "type": "bytes32"
        },
        {
          "indexed": true,
          "internalType": "uint256",
          "name": "purpose",
          "type": "uint256"
        },
        {
          "indexed": true,
          "internalType": "uint256",
          "name": "keyType",
          "type": "uint256"
        }
      ],
      "name": "KeyRemoved",
      "type": "event"
    },
    {
      "inputs": [
        {
          "internalType": "uint256",
          "name": "_claimType",
          "type": "uint256"
        },
        {
          "internalType": "uint256",
          "name": "_scheme",
          "type": "uint256"
        },
        {
          "internalType": "address",
          "name": "_issuer",
          "type": "address"
        },
        {
          "internalType": "bytes",
          "name": "_signature",
          "type": "bytes"
        },
        {
          "internalType": "bytes",
          "name": "_data",
          "type": "bytes"
        },
        {
          "internalType": "string",
          "name": "_uri",
          "type": "string"
        }
      ],
      "name": "addClaim",
      "outputs": [
        {
          "internalType": "bytes32",
          "name": "claimRequestId",
          "type": "bytes32"
        }
      ],
      "stateMutability": "nonpayable",
      "type": "function"
    },
    {
      "inputs": [
        {
          "internalType": "bytes32",
          "name": "_key",
          "type": "bytes32"
        },
        {
          "internalType": "uint256",
          "name": "_purpose",
          "type": "uint256"
        },
        {
          "internalType": "uint256",
          "name": "_type",
          "type": "uint256"
        }
      ],
      "name": "addKey",
      "outputs": [
        {
          "internalType": "bool",
          "name": "success",
          "type": "bool"
        }
      ],
      "stateMutability": "nonpayable",
      "type": "function"
    },
    {
      "inputs": [
        {
          "internalType": "uint256",
          "name": "_id",
          "type": "uint256"
        },
        {
          "internalType": "bool",
          "name": "_approve",
          "type": "bool"
        }
      ],
      "name": "approve",
      "outputs": [
        {
          "internalType": "bool",
          "name": "success",
          "type": "bool"
        }
      ],
      "stateMutability": "nonpayable",
      "type": "function"
    },
    {
      "inputs": [
        {
          "internalType": "address",
          "name": "_to",
          "type": "address"
        },
        {
          "internalType": "uint256",
          "name": "_value",
          "type": "uint256"
        },
        {
          "internalType": "bytes",
          "name": "_data",
          "type": "bytes"
        }
      ],
      "name": "execute",
      "outputs": [
        {
          "internalType": "uint256",
          "name": "executionId",
          "type": "uint256"
        }
      ],
      "stateMutability": "payable",
      "type": "function"
    },
    {
      "inputs": [
        {
          "internalType": "bytes32",
          "name": "_claimId",
          "type": "bytes32"
        }
      ],
      "name": "getClaim",
      "outputs": [
        {
          "internalType": "uint256",
          "name": "claimType",
          "type": "uint256"
        },
        {
          "internalType": "uint256",
          "name": "scheme",
          "type": "uint256"
        },
        {
          "internalType": "address",
          "name": "issuer",
          "type": "address"
        },
        {
          "internalType": "bytes",
          "name": "signature",
          "type": "bytes"
        },
        {
          "internalType": "bytes",
          "name": "data",
          "type": "bytes"
        },
        {
          "internalType": "string",
          "name": "uri",
          "type": "string"
        }
      ],
      "stateMutability": "view",
      "type": "function"
    },
    {
      "inputs": [
        {
          "internalType": "uint256",
          "name": "_claimType",
          "type": "uint256"
        }
      ],
      "name": "getClaimIdsByType",
      "outputs": [
        {
          "internalType": "bytes32[]",
          "name": "claimIds",
          "type": "bytes32[]"
        }
      ],
      "stateMutability": "view",
      "type": "function"
    },
    {
      "inputs": [
        {
          "internalType": "bytes32",
          "name": "_key",
          "type": "bytes32"
        }
      ],
      "name": "getKey",
      "outputs": [
        {
          "internalType": "uint256",
          "name": "purpose",
          "type": "uint256"
        },
        {
          "internalType": "uint256",
          "name": "keyType",
          "type": "uint256"
        },
        {
          "internalType": "bytes32",
          "name": "key",
          "type": "bytes32"
        }
      ],
      "stateMutability": "view",
      "type": "function"
    },
    {
      "inputs": [
        {
          "internalType": "bytes32",
          "name": "_key",
          "type": "bytes32"
        }
      ],
      "name": "getKeyPurpose",
      "outputs": [
        {
          "internalType": "uint256",
          "name": "purpose",
          "type": "uint256"
        }
      ],
      "stateMutability": "view",
      "type": "function"
    },
    {
      "inputs": [
        {
          "internalType": "uint256",
          "name": "_purpose",
          "type": "uint256"
        }
      ],
      "name": "getKeysByPurpose",
      "outputs": [
        {
          "internalType": "bytes32[]",
          "name": "_keys",
          "type": "bytes32[]"
        }
      ],
      "stateMutability": "view",
      "type": "function"
    },
    {
      "inputs": [
        {
          "internalType": "bytes32",
          "name": "_key",
          "type": "bytes32"
        },
        {
          "internalType": "uint256",
          "name": "_purpose",
          "type": "uint256"
        }
      ],
      "name": "keyHasPurpose",
      "outputs": [
        {
          "internalType": "bool",
          "name": "result",
          "type": "bool"
        }
      ],
      "stateMutability": "view",
      "type": "function"
    },
    {
      "inputs": [
        {
          "internalType": "bytes32",
          "name": "_claimId",
          "type": "bytes32"
        }
      ],
      "name": "removeClaim",
      "outputs": [
        {
          "internalType": "bool",
          "name": "success",
          "type": "bool"
        }
      ],
      "stateMutability": "nonpayable",
      "type": "function"
    },
    {
      "inputs": [
        {
          "internalType": "bytes32",
          "name": "_key",
          "type": "bytes32"
        }
      ],
      "name": "removeKey",
      "outputs": [
        {
          "internalType": "bool",
          "name": "success",
          "type": "bool"
        }
      ],
      "stateMutability": "nonpayable",
      "type": "function"
    }
  ],
  "bytecode": "0x60806040523480156200001157600080fd5b506000336040516020016200002791906200019b565b6040516020818303038152906040528051906020012090508060016000838152602001908152602001600020600201819055506001806000838152602001908152602001600020600001819055506001806000838152602001908152602001600020600101819055506002600060018152602001908152602001600020819080600181540180825580915050600190039060005260206000200160009091909190915055600180600083815260200190815260200160002060000154827f480000bb1edad8ca1470381cc334b1917fbd51c6531f3a623ea8e0ec7e38a6e960405160405180910390a450620001b8565b600073ffffffffffffffffffffffffffffffffffffffff82169050919050565b6000620001448262000117565b9050919050565b60008160601b9050919050565b600062000165826200014b565b9050919050565b6000620001798262000158565b9050919050565b620001956200018f8262000137565b6200016c565b82525050565b6000620001a9828462000180565b60148201915081905092915050565b6128eb80620001c86000396000f3fe6080604052600436106100a75760003560e01c8063862642f511610064578063862642f51461021c5780639010f72614610259578063b1a34e0d14610296578063b61d27f6146102d3578063c9100bcb14610303578063d202158d14610345576100a7565b8063032c1a8a146100ac57806312aaac70146100e95780631d38124014610128578063262b54f5146101655780634eee424a146101a2578063747442d3146101df575b600080fd5b3480156100b857600080fd5b506100d360048036038101906100ce91906115b8565b610382565b6040516100e091906115fe565b60405180910390f35b3480156100f557600080fd5b50610110600480360381019061010b91906115b8565b6103a2565b60405161011f93929190611628565b60405180910390f35b34801561013457600080fd5b5061014f600480360381019061014a919061168b565b6103f9565b60405161015c91906116f9565b60405180910390f35b34801561017157600080fd5b5061018c60048036038101906101879190611714565b6105bc565b60405161019991906117ff565b60405180910390f35b3480156101ae57600080fd5b506101c960048036038101906101c491906115b8565b610627565b6040516101d691906116f9565b60405180910390f35b3480156101eb57600080fd5b506102066004803603810190610201919061184d565b61084a565b60405161021391906116f9565b60405180910390f35b34801561022857600080fd5b50610243600480360381019061023e91906115b8565b610bd9565b60405161025091906116f9565b60405180910390f35b34801561026557600080fd5b50610280600480360381019061027b9190611714565b610cdb565b60405161028d91906117ff565b60405180910390f35b3480156102a257600080fd5b506102bd60048036038101906102b89190611ad2565b610d46565b6040516102ca9190611bb3565b60405180910390f35b6102ed60048036038101906102e89190611bce565b611017565b6040516102fa91906115fe565b60405180910390f35b34801561030f57600080fd5b5061032a600480360381019061032591906115b8565b611213565b60405161033c96959493929190611d20565b60405180910390f35b34801561035157600080fd5b5061036c60048036038101906103679190611d96565b61147d565b60405161037991906116f9565b60405180910390f35b600060016000838152602001908152602001600020600001549050919050565b60008060006001600085815260200190815260200160002060000154600160008681526020019081526020016000206001015460016000878152602001908152602001600020600201549250925092509193909250565b600083600160008681526020019081526020016000206002015403610453576040517f08c379a000000000000000000000000000000000000000000000000000000000815260040161044a90611e22565b60405180910390fd5b3073ffffffffffffffffffffffffffffffffffffffff163373ffffffffffffffffffffffffffffffffffffffff16146104f7576104b73360405160200161049a9190611e8a565b60405160208183030381529060405280519060200120600161147d565b6104f6576040517f08c379a00000000000000000000000000000000000000000000000000000000081526004016104ed90611f17565b60405180910390fd5b5b836001600086815260200190815260200160002060020181905550826001600086815260200190815260200160002060000181905550816001600086815260200190815260200160002060010181905550600260008481526020019081526020016000208490806001815401808255809150506001900390600052602060002001600090919091909150558183857f480000bb1edad8ca1470381cc334b1917fbd51c6531f3a623ea8e0ec7e38a6e960405160405180910390a4600190509392505050565b60606005600083815260200190815260200160002080548060200260200160405190810160405280929190818152602001828054801561061b57602002820191906000526020600020905b815481526020019060010190808311610607575b50505050509050919050565b60003073ffffffffffffffffffffffffffffffffffffffff163373ffffffffffffffffffffffffffffffffffffffff16146106cd5761068d336040516020016106709190611e8a565b60405160208183030381529060405280519060200120600161147d565b6106cc576040517f08c379a00000000000000000000000000000000000000000000000000000000081526004016106c390611f17565b60405180910390fd5b5b6004600083815260200190815260200160002060020160009054906101000a900473ffffffffffffffffffffffffffffffffffffffff1673ffffffffffffffffffffffffffffffffffffffff166004600084815260200190815260200160002060000154837f3cf57863a89432c61c4a27073c6ee39e8a764bff5a05aebfbcdcdc80b2e6130a60046000878152602001908152602001600020600101546004600088815260200190815260200160002060030160046000898152602001908152602001600020600401600460008a81526020019081526020016000206005016040516107bc94939291906120c9565b60405180910390a46004600083815260200190815260200160002060008082016000905560018201600090556002820160006101000a81549073ffffffffffffffffffffffffffffffffffffffff021916905560038201600061081f91906114d1565b60048201600061082f91906114d1565b60058201600061083f9190611511565b505060019050919050565b600061087d336040516020016108609190611e8a565b60405160208183030381529060405280519060200120600261147d565b6108bc576040517f08c379a00000000000000000000000000000000000000000000000000000000081526004016108b39061216f565b60405180910390fd5b827fb3932da477fe5d6c8ff2eafef050c0f3a1af18fc07121001482600f36f3715d8836040516108ec91906116f9565b60405180910390a26001151582151503610b9f5760016003600085815260200190815260200160002060030160006101000a81548160ff0219169083151502179055506003600084815260200190815260200160002060000160009054906101000a900473ffffffffffffffffffffffffffffffffffffffff1673ffffffffffffffffffffffffffffffffffffffff166003600085815260200190815260200160002060010154600360008681526020019081526020016000206002016040516109b6919061221d565b60006040518083038185875af1925050503d80600081146109f3576040519150601f19603f3d011682016040523d82523d6000602084013e6109f8565b606091505b5050809150508015610ae95760016003600085815260200190815260200160002060030160016101000a81548160ff02191690831515021790555060036000848152602001908152602001600020600101546003600085815260200190815260200160002060000160009054906101000a900473ffffffffffffffffffffffffffffffffffffffff1673ffffffffffffffffffffffffffffffffffffffff16847f1f920dbda597d7bf95035464170fa58d0a4b57f13a1c315ace6793b9f63688b860036000888152602001908152602001600020600201604051610adc9190612234565b60405180910390a4610bd3565b60036000848152602001908152602001600020600101546003600085815260200190815260200160002060000160009054906101000a900473ffffffffffffffffffffffffffffffffffffffff1673ffffffffffffffffffffffffffffffffffffffff16847fe10c49d9f7c71da23262367013434763cfdb2332267641728d25cd712c5c6a6860036000888152602001908152602001600020600201604051610b929190612234565b60405180910390a4610bd3565b60006003600085815260200190815260200160002060030160006101000a81548160ff021916908315150217905550600190505b92915050565b600081600160008481526020019081526020016000206002015414610c33576040517f08c379a0000000000000000000000000000000000000000000000000000000008152600401610c2a906122a2565b60405180910390fd5b6001600083815260200190815260200160002060010154600160008481526020019081526020016000206000015460016000858152602001908152602001600020600201547f585a4aef50f8267a92b32412b331b20f7f8b96f2245b253b9cc50dcc621d339760405160405180910390a46001600083815260200190815260200160002060008082016000905560018201600090556002820160009055505060019050919050565b606060026000838152602001908152602001600020805480602002602001604051908101604052809291908181526020018280548015610d3a57602002820191906000526020600020905b815481526020019060010190808311610d26575b50505050509050919050565b6000808588604051602001610d5c9291906122e3565b6040516020818303038152906040528051906020012090503073ffffffffffffffffffffffffffffffffffffffff163373ffffffffffffffffffffffffffffffffffffffff1614610e1857610dd833604051602001610dbb9190611e8a565b60405160208183030381529060405280519060200120600361147d565b610e17576040517f08c379a0000000000000000000000000000000000000000000000000000000008152600401610e0e90612381565b60405180910390fd5b5b8573ffffffffffffffffffffffffffffffffffffffff166004600083815260200190815260200160002060020160009054906101000a900473ffffffffffffffffffffffffffffffffffffffff1673ffffffffffffffffffffffffffffffffffffffff1614610ebc57600560008981526020019081526020016000208190806001815401808255809150506001900390600052602060002001600090919091909150555b876004600083815260200190815260200160002060000181905550866004600083815260200190815260200160002060010181905550856004600083815260200190815260200160002060020160006101000a81548173ffffffffffffffffffffffffffffffffffffffff021916908373ffffffffffffffffffffffffffffffffffffffff16021790555084600460008381526020019081526020016000206003019081610f6a9190612538565b5083600460008381526020019081526020016000206004019081610f8e9190612538565b5082600460008381526020019081526020016000206005019081610fb29190612650565b508573ffffffffffffffffffffffffffffffffffffffff1688827f46149b18aa084502c3f12bc75e19eda8bda8d102b82cce8474677a6d0d5f43c58a8989896040516110019493929190612722565b60405180910390a4809150509695505050505050565b6000600360008054815260200190815260200160002060030160019054906101000a900460ff161561107e576040517f08c379a0000000000000000000000000000000000000000000000000000000008152600401611075906127c8565b60405180910390fd5b83600360008054815260200190815260200160002060000160006101000a81548173ffffffffffffffffffffffffffffffffffffffff021916908373ffffffffffffffffffffffffffffffffffffffff1602179055508260036000805481526020019081526020016000206001018190555081600360008054815260200190815260200160002060020190816111149190612538565b50828473ffffffffffffffffffffffffffffffffffffffff166000547f8afcfabcb00e47a53a8fc3e9f23ff47ee1926194bb1350dd007c50b412a6cee88560405161115f91906127e8565b60405180910390a46111983360405160200161117b9190611e8a565b60405160208183030381529060405280519060200120600161147d565b806111d057506111cf336040516020016111b29190611e8a565b60405160208183030381529060405280519060200120600261147d565b5b156111e4576111e2600054600161084a565b505b6000808154809291906111f690612839565b9190505550600160005461120a9190612881565b90509392505050565b6000806000606080606060046000888152602001908152602001600020600001546004600089815260200190815260200160002060010154600460008a815260200190815260200160002060020160009054906101000a900473ffffffffffffffffffffffffffffffffffffffff16600460008b8152602001908152602001600020600301600460008c8152602001908152602001600020600401600460008d81526020019081526020016000206005018280546112d090611f66565b80601f01602080910402602001604051908101604052809291908181526020018280546112fc90611f66565b80156113495780601f1061131e57610100808354040283529160200191611349565b820191906000526020600020905b81548152906001019060200180831161132c57829003601f168201915b5050505050925081805461135c90611f66565b80601f016020809104026020016040519081016040528092919081815260200182805461138890611f66565b80156113d55780601f106113aa576101008083540402835291602001916113d5565b820191906000526020600020905b8154815290600101906020018083116113b857829003601f168201915b505050505091508080546113e890611f66565b80601f016020809104026020016040519081016040528092919081815260200182805461141490611f66565b80156114615780601f1061143657610100808354040283529160200191611461565b820191906000526020600020905b81548152906001019060200180831161144457829003601f168201915b5050505050905095509550955095509550955091939550919395565b6000806000801b6001600086815260200190815260200160002060020154036114aa5760009150506114cb565b82600160008681526020019081526020016000206000015411159050809150505b92915050565b5080546114dd90611f66565b6000825580601f106114ef575061150e565b601f01602090049060005260206000209081019061150d9190611551565b5b50565b50805461151d90611f66565b6000825580601f1061152f575061154e565b601f01602090049060005260206000209081019061154d9190611551565b5b50565b5b8082111561156a576000816000905550600101611552565b5090565b6000604051905090565b600080fd5b600080fd5b6000819050919050565b61159581611582565b81146115a057600080fd5b50565b6000813590506115b28161158c565b92915050565b6000602082840312156115ce576115cd611578565b5b60006115dc848285016115a3565b91505092915050565b6000819050919050565b6115f8816115e5565b82525050565b600060208201905061161360008301846115ef565b92915050565b61162281611582565b82525050565b600060608201905061163d60008301866115ef565b61164a60208301856115ef565b6116576040830184611619565b949350505050565b611668816115e5565b811461167357600080fd5b50565b6000813590506116858161165f565b92915050565b6000806000606084860312156116a4576116a3611578565b5b60006116b2868287016115a3565b93505060206116c386828701611676565b92505060406116d486828701611676565b9150509250925092565b60008115159050919050565b6116f3816116de565b82525050565b600060208201905061170e60008301846116ea565b92915050565b60006020828403121561172a57611729611578565b5b600061173884828501611676565b91505092915050565b600081519050919050565b600082825260208201905092915050565b6000819050602082019050919050565b61177681611582565b82525050565b6000611788838361176d565b60208301905092915050565b6000602082019050919050565b60006117ac82611741565b6117b6818561174c565b93506117c18361175d565b8060005b838110156117f25781516117d9888261177c565b97506117e483611794565b9250506001810190506117c5565b5085935050505092915050565b6000602082019050818103600083015261181981846117a1565b905092915050565b61182a816116de565b811461183557600080fd5b50565b60008135905061184781611821565b92915050565b6000806040838503121561186457611863611578565b5b600061187285828601611676565b925050602061188385828601611838565b9150509250929050565b600073ffffffffffffffffffffffffffffffffffffffff82169050919050565b60006118b88261188d565b9050919050565b6118c8816118ad565b81146118d357600080fd5b50565b6000813590506118e5816118bf565b92915050565b600080fd5b600080fd5b6000601f19601f8301169050919050565b7f4e487b7100000000000000000000000000000000000000000000000000000000600052604160045260246000fd5b61193e826118f5565b810181811067ffffffffffffffff8211171561195d5761195c611906565b5b80604052505050565b600061197061156e565b905061197c8282611935565b919050565b600067ffffffffffffffff82111561199c5761199b611906565b5b6119a5826118f5565b9050602081019050919050565b82818337600083830152505050565b60006119d46119cf84611981565b611966565b9050828152602081018484840111156119f0576119ef6118f0565b5b6119fb8482856119b2565b509392505050565b600082601f830112611a1857611a176118eb565b5b8135611a288482602086016119c1565b91505092915050565b600067ffffffffffffffff821115611a4c57611a4b611906565b5b611a55826118f5565b9050602081019050919050565b6000611a75611a7084611a31565b611966565b905082815260208101848484011115611a9157611a906118f0565b5b611a9c8482856119b2565b509392505050565b600082601f830112611ab957611ab86118eb565b5b8135611ac9848260208601611a62565b91505092915050565b60008060008060008060c08789031215611aef57611aee611578565b5b6000611afd89828a01611676565b9650506020611b0e89828a01611676565b9550506040611b1f89828a016118d6565b945050606087013567ffffffffffffffff811115611b4057611b3f61157d565b5b611b4c89828a01611a03565b935050608087013567ffffffffffffffff811115611b6d57611b6c61157d565b5b611b7989828a01611a03565b92505060a087013567ffffffffffffffff811115611b9a57611b9961157d565b5b611ba689828a01611aa4565b9150509295509295509295565b6000602082019050611bc86000830184611619565b92915050565b600080600060608486031215611be757611be6611578565b5b6000611bf5868287016118d6565b9350506020611c0686828701611676565b925050604084013567ffffffffffffffff811115611c2757611c2661157d565b5b611c3386828701611a03565b9150509250925092565b611c46816118ad565b82525050565b600081519050919050565b600082825260208201905092915050565b60005b83811015611c86578082015181840152602081019050611c6b565b60008484015250505050565b6000611c9d82611c4c565b611ca78185611c57565b9350611cb7818560208601611c68565b611cc0816118f5565b840191505092915050565b600081519050919050565b600082825260208201905092915050565b6000611cf282611ccb565b611cfc8185611cd6565b9350611d0c818560208601611c68565b611d15816118f5565b840191505092915050565b600060c082019050611d3560008301896115ef565b611d4260208301886115ef565b611d4f6040830187611c3d565b8181036060830152611d618186611c92565b90508181036080830152611d758185611c92565b905081810360a0830152611d898184611ce7565b9050979650505050505050565b60008060408385031215611dad57611dac611578565b5b6000611dbb858286016115a3565b9250506020611dcc85828601611676565b9150509250929050565b7f4b657920616c7265616479206578697374730000000000000000000000000000600082015250565b6000611e0c601283611cd6565b9150611e1782611dd6565b602082019050919050565b60006020820190508181036000830152611e3b81611dff565b9050919050565b60008160601b9050919050565b6000611e5a82611e42565b9050919050565b6000611e6c82611e4f565b9050919050565b611e84611e7f826118ad565b611e61565b82525050565b6000611e968284611e73565b60148201915081905092915050565b7f53656e64657220646f6573206e6f742068617665206d616e6167656d656e742060008201527f6b65790000000000000000000000000000000000000000000000000000000000602082015250565b6000611f01602383611cd6565b9150611f0c82611ea5565b604082019050919050565b60006020820190508181036000830152611f3081611ef4565b9050919050565b7f4e487b7100000000000000000000000000000000000000000000000000000000600052602260045260246000fd5b60006002820490506001821680611f7e57607f821691505b602082108103611f9157611f90611f37565b5b50919050565b60008190508160005260206000209050919050565b60008154611fb981611f66565b611fc38186611c57565b94506001821660008114611fde5760018114611ff457612027565b60ff198316865281151560200286019350612027565b611ffd85611f97565b60005b8381101561201f57815481890152600182019150602081019050612000565b808801955050505b50505092915050565b60008190508160005260206000209050919050565b6000815461205281611f66565b61205c8186611cd6565b94506001821660008114612077576001811461208d576120c0565b60ff1983168652811515602002860193506120c0565b61209685612030565b60005b838110156120b857815481890152600182019150602081019050612099565b808801955050505b50505092915050565b60006080820190506120de60008301876115ef565b81810360208301526120f08186611fac565b905081810360408301526121048185611fac565b905081810360608301526121188184612045565b905095945050505050565b7f53656e64657220646f6573206e6f74206861766520616374696f6e206b657900600082015250565b6000612159601f83611cd6565b915061216482612123565b602082019050919050565b600060208201905081810360008301526121888161214c565b9050919050565b600081905092915050565b600081546121a781611f66565b6121b1818661218f565b945060018216600081146121cc57600181146121e157612214565b60ff1983168652811515820286019350612214565b6121ea85611f97565b60005b8381101561220c578154818901526001820191506020810190506121ed565b838801955050505b50505092915050565b6000612229828461219a565b915081905092915050565b6000602082019050818103600083015261224e8184611fac565b905092915050565b7f4e6f2073756368206b6579000000000000000000000000000000000000000000600082015250565b600061228c600b83611cd6565b915061229782612256565b602082019050919050565b600060208201905081810360008301526122bb8161227f565b9050919050565b6000819050919050565b6122dd6122d8826115e5565b6122c2565b82525050565b60006122ef8285611e73565b6014820191506122ff82846122cc565b6020820191508190509392505050565b7f53656e64657220646f6573206e6f74206861766520636c61696d207369676e6560008201527f72206b6579000000000000000000000000000000000000000000000000000000602082015250565b600061236b602583611cd6565b91506123768261230f565b604082019050919050565b6000602082019050818103600083015261239a8161235e565b9050919050565b60006020601f8301049050919050565b600082821b905092915050565b6000600883026123ee7fffffffffffffffffffffffffffffffffffffffffffffffffffffffffffffffff826123b1565b6123f886836123b1565b95508019841693508086168417925050509392505050565b6000819050919050565b600061243561243061242b846115e5565b612410565b6115e5565b9050919050565b6000819050919050565b61244f8361241a565b61246361245b8261243c565b8484546123be565b825550505050565b600090565b61247861246b565b612483818484612446565b505050565b5b818110156124a75761249c600082612470565b600181019050612489565b5050565b601f8211156124ec576124bd81611f97565b6124c6846123a1565b810160208510156124d5578190505b6124e96124e1856123a1565b830182612488565b50505b505050565b600082821c905092915050565b600061250f600019846008026124f1565b1980831691505092915050565b600061252883836124fe565b9150826002028217905092915050565b61254182611c4c565b67ffffffffffffffff81111561255a57612559611906565b5b6125648254611f66565b61256f8282856124ab565b600060209050601f8311600181146125a25760008415612590578287015190505b61259a858261251c565b865550612602565b601f1984166125b086611f97565b60005b828110156125d8578489015182556001820191506020850194506020810190506125b3565b868310156125f557848901516125f1601f8916826124fe565b8355505b6001600288020188555050505b505050505050565b601f82111561264b5761261c81612030565b612625846123a1565b81016020851015612634578190505b612648612640856123a1565b830182612488565b50505b505050565b61265982611ccb565b67ffffffffffffffff81111561267257612671611906565b5b61267c8254611f66565b61268782828561260a565b600060209050601f8311600181146126ba57600084156126a8578287015190505b6126b2858261251c565b86555061271a565b601f1984166126c886612030565b60005b828110156126f0578489015182556001820191506020850194506020810190506126cb565b8683101561270d5784890151612709601f8916826124fe565b8355505b6001600288020188555050505b505050505050565b600060808201905061273760008301876115ef565b81810360208301526127498186611c92565b9050818103604083015261275d8185611c92565b905081810360608301526127718184611ce7565b905095945050505050565b7f416c726561647920657865637574656400000000000000000000000000000000600082015250565b60006127b2601083611cd6565b91506127bd8261277c565b602082019050919050565b600060208201905081810360008301526127e1816127a5565b9050919050565b600060208201905081810360008301526128028184611c92565b905092915050565b7f4e487b7100000000000000000000000000000000000000000000000000000000600052601160045260246000fd5b6000612844826115e5565b91507fffffffffffffffffffffffffffffffffffffffffffffffffffffffffffffffff82036128765761287561280a565b5b600182019050919050565b600061288c826115e5565b9150612897836115e5565b92508282039050818111156128af576128ae61280a565b5b9291505056fea2646970667358221220fc964375a4f66284d8bfbc05d8f5b18e9d8d85af10c71b2f2968c626f898adb364736f6c63430008110033",
  "linkReferences": {},
  "deployedLinkReferences": {}
}