{
  "_format": "hh-sol-artifact-1",
  "contractName": "ClaimVerifier",
  "sourceName": "contracts/ClaimVerifier.sol",
  "abi": [
    {
      "inputs": [
        {
          "internalType": "address",
          "name": "_trustedClaimIssuer",
          "type": "address"
        }
      ],
      "stateMutability": "nonpayable",
      "type": "constructor"
    },
    {
      "anonymous": false,
      "inputs": [
        {
          "indexed": false,
          "internalType": "contract ClaimHolder",
          "name": "_identity",
          "type": "address"
        },
        {
          "indexed": false,
          "internalType": "uint256",
          "name": "claimType",
          "type": "uint256"
        }
      ],
      "name": "ClaimInvalid",
      "type": "event"
    },
    {
      "anonymous": false,
      "inputs": [
        {
          "indexed": false,
          "internalType": "contract ClaimHolder",
          "name": "_identity",
          "type": "address"
        },
        {
          "indexed": false,
          "internalType": "uint256",
          "name": "claimType",
          "type": "uint256"
        }
      ],
      "name": "ClaimValid",
      "type": "event"
    },
    {
      "inputs": [
        {
          "internalType": "contract ClaimHolder",
          "name": "_identity",
          "type": "address"
        },
        {
          "internalType": "uint256",
          "name": "claimType",
          "type": "uint256"
        }
      ],
      "name": "checkClaim",
      "outputs": [
        {
          "internalType": "bool",
          "name": "claimValid",
          "type": "bool"
        }
      ],
      "stateMutability": "nonpayable",
      "type": "function"
    },
    {
      "inputs": [
        {
          "internalType": "contract ClaimHolder",
          "name": "_identity",
          "type": "address"
        },
        {
          "internalType": "uint256",
          "name": "claimType",
          "type": "uint256"
        }
      ],
      "name": "claimIsValid",
      "outputs": [
        {
          "internalType": "bool",
          "name": "claimValid",
          "type": "bool"
        }
      ],
      "stateMutability": "view",
      "type": "function"
    },
    {
      "inputs": [
        {
          "internalType": "bytes",
          "name": "sig",
          "type": "bytes"
        },
        {
          "internalType": "bytes32",
          "name": "dataHash",
          "type": "bytes32"
        }
      ],
      "name": "getRecoveredAddress",
      "outputs": [
        {
          "internalType": "address",
          "name": "addr",
          "type": "address"
        }
      ],
      "stateMutability": "pure",
      "type": "function"
    },
    {
      "inputs": [],
      "name": "trustedClaimIssuer",
      "outputs": [
        {
          "internalType": "contract ClaimHolder",
          "name": "",
          "type": "address"
        }
      ],
      "stateMutability": "view",
      "type": "function"
    }
  ],
  "bytecode": "0x60806040523480156200001157600080fd5b506040516200132f3803806200132f8339818101604052810190620000379190620000e8565b806000806101000a81548173ffffffffffffffffffffffffffffffffffffffff021916908373ffffffffffffffffffffffffffffffffffffffff160217905550506200011a565b600080fd5b600073ffffffffffffffffffffffffffffffffffffffff82169050919050565b6000620000b08262000083565b9050919050565b620000c281620000a3565b8114620000ce57600080fd5b50565b600081519050620000e281620000b7565b92915050565b6000602082840312156200010157620001006200007e565b5b60006200011184828501620000d1565b91505092915050565b611205806200012a6000396000f3fe608060405234801561001057600080fd5b506004361061004c5760003560e01c80630382ad2614610051578063106aede8146100815780639fecd5541461009f578063c3b129e3146100cf575b600080fd5b61006b600480360381019061006691906107dd565b6100ff565b6040516100789190610838565b60405180910390f35b610089610196565b60405161009691906108b2565b60405180910390f35b6100b960048036038101906100b491906107dd565b6101ba565b6040516100c69190610838565b60405180910390f35b6100e960048036038101906100e49190610a49565b61047c565b6040516100f69190610ab4565b60405180910390f35b600061010b83836101ba565b15610152577f5637aa6b77cde2de563765b75a65099af73d3bf22cb9d089a64a01777823208e8383604051610141929190610ade565b60405180910390a160019050610190565b7fc1e461cfcaa9ff5efbb053582a325fbfebec1d94ac7e9d9958ee7f74c2b6b5588383604051610183929190610ade565b60405180910390a1600090505b92915050565b60008054906101000a900473ffffffffffffffffffffffffffffffffffffffff1681565b60008060008060608060008060009054906101000a900473ffffffffffffffffffffffffffffffffffffffff16886040516020016101f9929190610b70565b6040516020818303038152906040528051906020012090508873ffffffffffffffffffffffffffffffffffffffff1663c9100bcb826040518263ffffffff1660e01b815260040161024a9190610bab565b600060405180830381865afa158015610267573d6000803e3d6000fd5b505050506040513d6000823e3d601f19601f820116820180604052508101906102909190610d42565b50809650819750829850839950849a50505050505060008989846040516020016102bc93929190610e6a565b60405160208183030381529060405290506102d68161052c565b60008a8a856040516020016102ed93929190610e6a565b6040516020818303038152906040528051906020012090506000816040516020016103189190610f1b565b604051602081830303815290604052805190602001209050600061033c878361047c565b90506000816040516020016103519190610f41565b604051602081830303815290604052805190602001209050610372866105c5565b61037b846105c5565b610384836105c5565b6103c36040518060400160405280601081526020017f7265636f766572656461646472202573000000000000000000000000000000008152508361065e565b6103cc816105c5565b60008054906101000a900473ffffffffffffffffffffffffffffffffffffffff1673ffffffffffffffffffffffffffffffffffffffff1663d202158d8260036040518363ffffffff1660e01b8152600401610428929190610f97565b602060405180830381865afa158015610445573d6000803e3d6000fd5b505050506040513d601f19601f820116820180604052508101906104699190610fec565b9b50505050505050505050505092915050565b60008060008060418651146104975760009350505050610526565b6020860151925060408601519150606086015160001a9050601b8160ff1610156104cb57601b816104c89190611055565b90505b6000600186838686604051600081526020016040526040516104f09493929190611099565b6020604051602081039080840390855afa158015610512573d6000803e3d6000fd5b505050602060405103519050809450505050505b92915050565b6105c2816040516024016105409190611128565b6040516020818303038152906040527f0be77f56000000000000000000000000000000000000000000000000000000007bffffffffffffffffffffffffffffffffffffffffffffffffffffffff19166020820180517bffffffffffffffffffffffffffffffffffffffffffffffffffffffff83818316178352505050506106fa565b50565b61065b816040516024016105d99190610bab565b6040516020818303038152906040527f27b7cf85000000000000000000000000000000000000000000000000000000007bffffffffffffffffffffffffffffffffffffffffffffffffffffffff19166020820180517bffffffffffffffffffffffffffffffffffffffffffffffffffffffff83818316178352505050506106fa565b50565b6106f6828260405160240161067492919061119f565b6040516020818303038152906040527f319af333000000000000000000000000000000000000000000000000000000007bffffffffffffffffffffffffffffffffffffffffffffffffffffffff19166020820180517bffffffffffffffffffffffffffffffffffffffffffffffffffffffff83818316178352505050506106fa565b5050565b60008151905060006a636f6e736f6c652e6c6f679050602083016000808483855afa5050505050565b6000604051905090565b600080fd5b600080fd5b600073ffffffffffffffffffffffffffffffffffffffff82169050919050565b600061076282610737565b9050919050565b600061077482610757565b9050919050565b61078481610769565b811461078f57600080fd5b50565b6000813590506107a18161077b565b92915050565b6000819050919050565b6107ba816107a7565b81146107c557600080fd5b50565b6000813590506107d7816107b1565b92915050565b600080604083850312156107f4576107f361072d565b5b600061080285828601610792565b9250506020610813858286016107c8565b9150509250929050565b60008115159050919050565b6108328161081d565b82525050565b600060208201905061084d6000830184610829565b92915050565b6000819050919050565b600061087861087361086e84610737565b610853565b610737565b9050919050565b600061088a8261085d565b9050919050565b600061089c8261087f565b9050919050565b6108ac81610891565b82525050565b60006020820190506108c760008301846108a3565b92915050565b600080fd5b600080fd5b6000601f19601f8301169050919050565b7f4e487b7100000000000000000000000000000000000000000000000000000000600052604160045260246000fd5b610920826108d7565b810181811067ffffffffffffffff8211171561093f5761093e6108e8565b5b80604052505050565b6000610952610723565b905061095e8282610917565b919050565b600067ffffffffffffffff82111561097e5761097d6108e8565b5b610987826108d7565b9050602081019050919050565b82818337600083830152505050565b60006109b66109b184610963565b610948565b9050828152602081018484840111156109d2576109d16108d2565b5b6109dd848285610994565b509392505050565b600082601f8301126109fa576109f96108cd565b5b8135610a0a8482602086016109a3565b91505092915050565b6000819050919050565b610a2681610a13565b8114610a3157600080fd5b50565b600081359050610a4381610a1d565b92915050565b60008060408385031215610a6057610a5f61072d565b5b600083013567ffffffffffffffff811115610a7e57610a7d610732565b5b610a8a858286016109e5565b9250506020610a9b85828601610a34565b9150509250929050565b610aae81610757565b82525050565b6000602082019050610ac96000830184610aa5565b92915050565b610ad8816107a7565b82525050565b6000604082019050610af360008301856108a3565b610b006020830184610acf565b9392505050565b60008160601b9050919050565b6000610b1f82610b07565b9050919050565b6000610b3182610b14565b9050919050565b610b49610b4482610757565b610b26565b82525050565b6000819050919050565b610b6a610b65826107a7565b610b4f565b82525050565b6000610b7c8285610b38565b601482019150610b8c8284610b59565b6020820191508190509392505050565b610ba581610a13565b82525050565b6000602082019050610bc06000830184610b9c565b92915050565b600081519050610bd5816107b1565b92915050565b610be481610757565b8114610bef57600080fd5b50565b600081519050610c0181610bdb565b92915050565b60005b83811015610c25578082015181840152602081019050610c0a565b60008484015250505050565b6000610c44610c3f84610963565b610948565b905082815260208101848484011115610c6057610c5f6108d2565b5b610c6b848285610c07565b509392505050565b600082601f830112610c8857610c876108cd565b5b8151610c98848260208601610c31565b91505092915050565b600067ffffffffffffffff821115610cbc57610cbb6108e8565b5b610cc5826108d7565b9050602081019050919050565b6000610ce5610ce084610ca1565b610948565b905082815260208101848484011115610d0157610d006108d2565b5b610d0c848285610c07565b509392505050565b600082601f830112610d2957610d286108cd565b5b8151610d39848260208601610cd2565b91505092915050565b60008060008060008060c08789031215610d5f57610d5e61072d565b5b6000610d6d89828a01610bc6565b9650506020610d7e89828a01610bc6565b9550506040610d8f89828a01610bf2565b945050606087015167ffffffffffffffff811115610db057610daf610732565b5b610dbc89828a01610c73565b935050608087015167ffffffffffffffff811115610ddd57610ddc610732565b5b610de989828a01610c73565b92505060a087015167ffffffffffffffff811115610e0a57610e09610732565b5b610e1689828a01610d14565b9150509295509295509295565b600081519050919050565b600081905092915050565b6000610e4482610e23565b610e4e8185610e2e565b9350610e5e818560208601610c07565b80840191505092915050565b6000610e768286610b38565b601482019150610e868285610b59565b602082019150610e968284610e39565b9150819050949350505050565b600081905092915050565b7f19457468657265756d205369676e6564204d6573736167653a0a333200000000600082015250565b6000610ee4601c83610ea3565b9150610eef82610eae565b601c82019050919050565b6000819050919050565b610f15610f1082610a13565b610efa565b82525050565b6000610f2682610ed7565b9150610f328284610f04565b60208201915081905092915050565b6000610f4d8284610b38565b60148201915081905092915050565b6000819050919050565b6000610f81610f7c610f7784610f5c565b610853565b6107a7565b9050919050565b610f9181610f66565b82525050565b6000604082019050610fac6000830185610b9c565b610fb96020830184610f88565b9392505050565b610fc98161081d565b8114610fd457600080fd5b50565b600081519050610fe681610fc0565b92915050565b6000602082840312156110025761100161072d565b5b600061101084828501610fd7565b91505092915050565b600060ff82169050919050565b7f4e487b7100000000000000000000000000000000000000000000000000000000600052601160045260246000fd5b600061106082611019565b915061106b83611019565b9250828201905060ff81111561108457611083611026565b5b92915050565b61109381611019565b82525050565b60006080820190506110ae6000830187610b9c565b6110bb602083018661108a565b6110c86040830185610b9c565b6110d56060830184610b9c565b95945050505050565b600082825260208201905092915050565b60006110fa82610e23565b61110481856110de565b9350611114818560208601610c07565b61111d816108d7565b840191505092915050565b6000602082019050818103600083015261114281846110ef565b905092915050565b600081519050919050565b600082825260208201905092915050565b60006111718261114a565b61117b8185611155565b935061118b818560208601610c07565b611194816108d7565b840191505092915050565b600060408201905081810360008301526111b98185611166565b90506111c86020830184610aa5565b939250505056fea2646970667358221220127b1f58c9bdaed051d03f1393ac944c92ea716831fe240519c09f18da99b22264736f6c63430008110033",
  "linkReferences": {},
  "deployedLinkReferences": {}
}