{
  "_format": "hh-sol-artifact-1",
  "contractName": "DefaultCallbackHandler",
  "sourceName": "contracts/DefaultCallbackHandler.sol",
  "abi": [
    {
      "inputs": [
        {
          "internalType": "address",
          "name": "",
          "type": "address"
        },
        {
          "internalType": "address",
          "name": "",
          "type": "address"
        },
        {
          "internalType": "uint256[]",
          "name": "",
          "type": "uint256[]"
        },
        {
          "internalType": "uint256[]",
          "name": "",
          "type": "uint256[]"
        },
        {
          "internalType": "bytes",
          "name": "",
          "type": "bytes"
        }
      ],
      "name": "onERC1155BatchReceived",
      "outputs": [
        {
          "internalType": "bytes4",
          "name": "",
          "type": "bytes4"
        }
      ],
      "stateMutability": "pure",
      "type": "function"
    },
    {
      "inputs": [
        {
          "internalType": "address",
          "name": "",
          "type": "address"
        },
        {
          "internalType": "address",
          "name": "",
          "type": "address"
        },
        {
          "internalType": "uint256",
          "name": "",
          "type": "uint256"
        },
        {
          "internalType": "uint256",
          "name": "",
          "type": "uint256"
        },
        {
          "internalType": "bytes",
          "name": "",
          "type": "bytes"
        }
      ],
      "name": "onERC1155Received",
      "outputs": [
        {
          "internalType": "bytes4",
          "name": "",
          "type": "bytes4"
        }
      ],
      "stateMutability": "pure",
      "type": "function"
    },
    {
      "inputs": [
        {
          "internalType": "address",
          "name": "",
          "type": "address"
        },
        {
          "internalType": "address",
          "name": "",
          "type": "address"
        },
        {
          "internalType": "uint256",
          "name": "",
          "type": "uint256"
        },
        {
          "internalType": "bytes",
          "name": "",
          "type": "bytes"
        }
      ],
      "name": "onERC721Received",
      "outputs": [
        {
          "internalType": "bytes4",
          "name": "",
          "type": "bytes4"
        }
      ],
      "stateMutability": "pure",
      "type": "function"
    },
    {
      "inputs": [
        {
          "internalType": "bytes4",
          "name": "interfaceId",
          "type": "bytes4"
        }
      ],
      "name": "supportsInterface",
      "outputs": [
        {
          "internalType": "bool",
          "name": "",
          "type": "bool"
        }
      ],
      "stateMutability": "view",
      "type": "function"
    },
    {
      "inputs": [
        {
          "internalType": "address",
          "name": "",
          "type": "address"
        },
        {
          "internalType": "address",
          "name": "",
          "type": "address"
        },
        {
          "internalType": "address",
          "name": "",
          "type": "address"
        },
        {
          "internalType": "uint256",
          "name": "",
          "type": "uint256"
        },
        {
          "internalType": "bytes",
          "name": "",
          "type": "bytes"
        },
        {
          "internalType": "bytes",
          "name": "",
          "type": "bytes"
        }
      ],
      "name": "tokensReceived",
      "outputs": [],
      "stateMutability": "pure",
      "type": "function"
    }
  ],
  "bytecode": "0x608060405234801561001057600080fd5b5061061d806100206000396000f3fe608060405234801561001057600080fd5b50600436106100665760003560e01c8063150b7a0211610050578063150b7a02146100ad578063bc197c8114610116578063f23a6e611461015157600080fd5b806223de291461006b57806301ffc9a714610085575b600080fd5b61008361007936600461032d565b5050505050505050565b005b6100986100933660046103d8565b61018a565b60405190151581526020015b60405180910390f35b6100e56100bb366004610421565b7f150b7a020000000000000000000000000000000000000000000000000000000095945050505050565b6040517fffffffff0000000000000000000000000000000000000000000000000000000090911681526020016100a4565b6100e56101243660046104d5565b7fbc197c810000000000000000000000000000000000000000000000000000000098975050505050505050565b6100e561015f36600461056f565b7ff23a6e61000000000000000000000000000000000000000000000000000000009695505050505050565b60007fffffffff0000000000000000000000000000000000000000000000000000000082167f4e2312e000000000000000000000000000000000000000000000000000000000148061021d57507fffffffff0000000000000000000000000000000000000000000000000000000082167f150b7a0200000000000000000000000000000000000000000000000000000000145b8061026957507fffffffff0000000000000000000000000000000000000000000000000000000082167f01ffc9a700000000000000000000000000000000000000000000000000000000145b806102b557507f01ffc9a7000000000000000000000000000000000000000000000000000000007fffffffff000000000000000000000000000000000000000000000000000000008316145b92915050565b803573ffffffffffffffffffffffffffffffffffffffff811681146102df57600080fd5b919050565b60008083601f8401126102f657600080fd5b50813567ffffffffffffffff81111561030e57600080fd5b60208301915083602082850101111561032657600080fd5b9250929050565b60008060008060008060008060c0898b03121561034957600080fd5b610352896102bb565b975061036060208a016102bb565b965061036e60408a016102bb565b955060608901359450608089013567ffffffffffffffff8082111561039257600080fd5b61039e8c838d016102e4565b909650945060a08b01359150808211156103b757600080fd5b506103c48b828c016102e4565b999c989b5096995094979396929594505050565b6000602082840312156103ea57600080fd5b81357fffffffff000000000000000000000000000000000000000000000000000000008116811461041a57600080fd5b9392505050565b60008060008060006080868803121561043957600080fd5b610442866102bb565b9450610450602087016102bb565b935060408601359250606086013567ffffffffffffffff81111561047357600080fd5b61047f888289016102e4565b969995985093965092949392505050565b60008083601f8401126104a257600080fd5b50813567ffffffffffffffff8111156104ba57600080fd5b6020830191508360208260051b850101111561032657600080fd5b60008060008060008060008060a0898b0312156104f157600080fd5b6104fa896102bb565b975061050860208a016102bb565b9650604089013567ffffffffffffffff8082111561052557600080fd5b6105318c838d01610490565b909850965060608b013591508082111561054a57600080fd5b6105568c838d01610490565b909650945060808b01359150808211156103b757600080fd5b60008060008060008060a0878903121561058857600080fd5b610591876102bb565b955061059f602088016102bb565b94506040870135935060608701359250608087013567ffffffffffffffff8111156105c957600080fd5b6105d589828a016102e4565b979a969950949750929593949250505056fea26469706673582212203767d11b33ee814c8da5fa54984581d1572a337523bebbfd4b80761b525600f764736f6c63430008110033",
  "linkReferences": {},
  "deployedLinkReferences": {}
}